{
  "address": "0xEff4F4b1a21ffAC6C81Aa1bF8F5d39A35268a356",
  "abi": [
    {
      "inputs": [
        {
          "internalType": "address",
          "name": "_registrar",
          "type": "address"
        },
        {
          "internalType": "address",
          "name": "_fallbackAddress",
          "type": "address"
        },
        {
          "internalType": "uint256",
          "name": "_fee",
          "type": "uint256"
        },
        {
          "internalType": "bytes32",
          "name": "_merkleRoot",
          "type": "bytes32"
        },
        {
          "internalType": "uint256",
          "name": "_airdropBalance",
          "type": "uint256"
        }
      ],
      "stateMutability": "nonpayable",
      "type": "constructor"
    },
    {
      "inputs": [],
      "name": "MySignalApp__AllocationExceedsTokensLeft",
      "type": "error"
    },
    {
      "inputs": [],
      "name": "MySignalApp__AlreadyClaimed",
      "type": "error"
    },
    {
      "inputs": [],
      "name": "MySignalApp__InsufficientBalance",
      "type": "error"
    },
    {
      "inputs": [],
      "name": "MySignalApp__InvalidAddress",
      "type": "error"
    },
    {
      "inputs": [],
      "name": "MySignalApp__InvalidPresalePurchaseAmount",
      "type": "error"
    },
    {
      "inputs": [],
      "name": "MySignalApp__NotFallback",
      "type": "error"
    },
    {
      "inputs": [],
      "name": "MySignalApp__NotInWhitelist",
      "type": "error"
    },
    {
      "inputs": [],
      "name": "MySignalApp__NotInitialized",
      "type": "error"
    },
    {
      "inputs": [],
      "name": "MySignalApp__NotProvider",
      "type": "error"
    },
    {
      "inputs": [],
      "name": "MySignalApp__NotRegistrar",
      "type": "error"
    },
    {
      "inputs": [],
      "name": "MySignalApp__PresaleMustEnd",
      "type": "error"
    },
    {
      "inputs": [],
      "name": "MySignalApp__TransferFailed",
      "type": "error"
    },
    {
      "anonymous": false,
      "inputs": [
        {
          "indexed": false,
          "internalType": "address",
          "name": "oldAddress",
          "type": "address"
        },
        {
          "indexed": false,
          "internalType": "address",
          "name": "newAddress",
          "type": "address"
        }
      ],
      "name": "AddressProviderChange",
      "type": "event"
    },
    {
      "anonymous": false,
      "inputs": [
        {
          "indexed": false,
          "internalType": "address",
          "name": "to",
          "type": "address"
        },
        {
          "indexed": false,
          "internalType": "uint256",
          "name": "amount",
          "type": "uint256"
        }
      ],
      "name": "AirdropClaimed",
      "type": "event"
    },
    {
      "anonymous": false,
      "inputs": [
        {
          "indexed": true,
          "internalType": "address",
          "name": "owner",
          "type": "address"
        },
        {
          "indexed": true,
          "internalType": "address",
          "name": "spender",
          "type": "address"
        },
        {
          "indexed": false,
          "internalType": "uint256",
          "name": "value",
          "type": "uint256"
        }
      ],
      "name": "Approval",
      "type": "event"
    },
    {
      "anonymous": false,
      "inputs": [
        {
          "indexed": true,
          "internalType": "address",
          "name": "provider",
          "type": "address"
        },
        {
          "indexed": true,
          "internalType": "address",
          "name": "referrer",
          "type": "address"
        },
        {
          "indexed": false,
          "internalType": "uint256",
          "name": "amount",
          "type": "uint256"
        },
        {
          "indexed": true,
          "internalType": "uint256",
          "name": "signalId",
          "type": "uint256"
        },
        {
          "indexed": false,
          "internalType": "string",
          "name": "userId",
          "type": "string"
        }
      ],
      "name": "CompensateProvider",
      "type": "event"
    },
    {
      "anonymous": false,
      "inputs": [
        {
          "indexed": false,
          "internalType": "address",
          "name": "oldAddress",
          "type": "address"
        },
        {
          "indexed": false,
          "internalType": "address",
          "name": "newAddress",
          "type": "address"
        }
      ],
      "name": "FallbackChange",
      "type": "event"
    },
    {
      "anonymous": false,
      "inputs": [
        {
          "indexed": false,
          "internalType": "uint256",
          "name": "oldFee",
          "type": "uint256"
        },
        {
          "indexed": false,
          "internalType": "uint256",
          "name": "newFee",
          "type": "uint256"
        }
      ],
      "name": "FeeChange",
      "type": "event"
    },
    {
      "anonymous": false,
      "inputs": [
        {
          "indexed": false,
          "internalType": "address",
          "name": "to",
          "type": "address"
        },
        {
          "indexed": false,
          "internalType": "uint256",
          "name": "amount",
          "type": "uint256"
        },
        {
          "indexed": false,
          "internalType": "uint256",
          "name": "tokensReceived",
          "type": "uint256"
        }
      ],
      "name": "PreSaleTokensPurchased",
      "type": "event"
    },
    {
      "anonymous": false,
      "inputs": [
        {
          "indexed": false,
          "internalType": "address",
          "name": "provider",
          "type": "address"
        }
      ],
      "name": "ProviderAdded",
      "type": "event"
    },
    {
      "anonymous": false,
      "inputs": [
        {
          "indexed": true,
          "internalType": "address",
          "name": "provider",
          "type": "address"
        },
        {
          "indexed": false,
          "internalType": "uint256",
          "name": "amount",
          "type": "uint256"
        }
      ],
      "name": "ProviderWithdraw",
      "type": "event"
    },
    {
      "anonymous": false,
      "inputs": [
        {
          "indexed": false,
          "internalType": "address",
          "name": "oldAddress",
          "type": "address"
        },
        {
          "indexed": false,
          "internalType": "address",
          "name": "newAddress",
          "type": "address"
        }
      ],
      "name": "RegistrarChange",
      "type": "event"
    },
    {
      "anonymous": false,
      "inputs": [
        {
          "indexed": true,
          "internalType": "address",
          "name": "from",
          "type": "address"
        },
        {
          "indexed": true,
          "internalType": "address",
          "name": "to",
          "type": "address"
        },
        {
          "indexed": false,
          "internalType": "uint256",
          "name": "value",
          "type": "uint256"
        }
      ],
      "name": "Transfer",
      "type": "event"
    },
    {
      "anonymous": false,
      "inputs": [
        {
          "indexed": true,
          "internalType": "address",
          "name": "provider",
          "type": "address"
        },
        {
          "indexed": false,
          "internalType": "uint256",
          "name": "amount",
          "type": "uint256"
        }
      ],
      "name": "TransferDeposits",
      "type": "event"
    },
    {
      "inputs": [
        {
          "internalType": "address",
          "name": "_provider",
          "type": "address"
        }
      ],
      "name": "addProvider",
      "outputs": [],
      "stateMutability": "nonpayable",
      "type": "function"
    },
    {
      "inputs": [
        {
          "internalType": "address",
          "name": "owner",
          "type": "address"
        },
        {
          "internalType": "address",
          "name": "spender",
          "type": "address"
        }
      ],
      "name": "allowance",
      "outputs": [
        {
          "internalType": "uint256",
          "name": "",
          "type": "uint256"
        }
      ],
      "stateMutability": "view",
      "type": "function"
    },
    {
      "inputs": [
        {
          "internalType": "address",
          "name": "spender",
          "type": "address"
        },
        {
          "internalType": "uint256",
          "name": "amount",
          "type": "uint256"
        }
      ],
      "name": "approve",
      "outputs": [
        {
          "internalType": "bool",
          "name": "",
          "type": "bool"
        }
      ],
      "stateMutability": "nonpayable",
      "type": "function"
    },
    {
      "inputs": [
        {
          "internalType": "address",
          "name": "account",
          "type": "address"
        }
      ],
      "name": "balanceOf",
      "outputs": [
        {
          "internalType": "uint256",
          "name": "",
          "type": "uint256"
        }
      ],
      "stateMutability": "view",
      "type": "function"
    },
    {
      "inputs": [
        {
          "internalType": "uint256",
          "name": "_minBuy",
          "type": "uint256"
        },
        {
          "internalType": "uint256",
          "name": "_maxBuy",
          "type": "uint256"
        }
      ],
      "name": "changeBuyLimits",
      "outputs": [],
      "stateMutability": "nonpayable",
      "type": "function"
    },
    {
      "inputs": [
        {
          "internalType": "address",
          "name": "_addr",
          "type": "address"
        }
      ],
      "name": "changeFallback",
      "outputs": [],
      "stateMutability": "nonpayable",
      "type": "function"
    },
    {
      "inputs": [
        {
          "internalType": "uint256",
          "name": "_fee",
          "type": "uint256"
        }
      ],
      "name": "changeFee",
      "outputs": [],
      "stateMutability": "nonpayable",
      "type": "function"
    },
    {
      "inputs": [
        {
          "internalType": "address",
          "name": "_addr",
          "type": "address"
        }
      ],
      "name": "changeRegistrar",
      "outputs": [],
      "stateMutability": "nonpayable",
      "type": "function"
    },
    {
      "inputs": [
        {
          "internalType": "bytes32[]",
          "name": "_proof",
          "type": "bytes32[]"
        },
        {
          "internalType": "uint256",
          "name": "_amount",
          "type": "uint256"
        }
      ],
      "name": "checkInWhitelist",
      "outputs": [
        {
          "internalType": "bool",
          "name": "",
          "type": "bool"
        }
      ],
      "stateMutability": "view",
      "type": "function"
    },
    {
      "inputs": [
        {
          "internalType": "bytes32[]",
          "name": "_proof",
          "type": "bytes32[]"
        },
        {
          "internalType": "uint256",
          "name": "_amount",
          "type": "uint256"
        }
      ],
      "name": "claimAirdrop",
      "outputs": [],
      "stateMutability": "nonpayable",
      "type": "function"
    },
    {
      "inputs": [],
      "name": "decimals",
      "outputs": [
        {
          "internalType": "uint8",
          "name": "",
          "type": "uint8"
        }
      ],
      "stateMutability": "view",
      "type": "function"
    },
    {
      "inputs": [
        {
          "internalType": "address",
          "name": "spender",
          "type": "address"
        },
        {
          "internalType": "uint256",
          "name": "subtractedValue",
          "type": "uint256"
        }
      ],
      "name": "decreaseAllowance",
      "outputs": [
        {
          "internalType": "bool",
          "name": "",
          "type": "bool"
        }
      ],
      "stateMutability": "nonpayable",
      "type": "function"
    },
    {
      "inputs": [],
      "name": "endPreSale",
      "outputs": [],
      "stateMutability": "nonpayable",
      "type": "function"
    },
    {
      "inputs": [
        {
          "internalType": "uint256",
          "name": "_amount",
          "type": "uint256"
        }
      ],
      "name": "fallbackWithdraw",
      "outputs": [],
      "stateMutability": "nonpayable",
      "type": "function"
    },
    {
      "inputs": [],
      "name": "getFallbacks",
      "outputs": [
        {
          "internalType": "uint256",
          "name": "",
          "type": "uint256"
        }
      ],
      "stateMutability": "view",
      "type": "function"
    },
    {
      "inputs": [],
      "name": "getFee",
      "outputs": [
        {
          "internalType": "uint256",
          "name": "",
          "type": "uint256"
        }
      ],
      "stateMutability": "view",
      "type": "function"
    },
    {
      "inputs": [],
      "name": "getPresaleDetails",
      "outputs": [
        {
          "components": [
            {
              "internalType": "uint256",
              "name": "saleCount",
              "type": "uint256"
            },
            {
              "internalType": "uint256",
              "name": "amountRaised",
              "type": "uint256"
            },
            {
              "internalType": "uint256",
              "name": "amountWithdrawable",
              "type": "uint256"
            },
            {
              "internalType": "uint256",
              "name": "tokensLeft",
              "type": "uint256"
            },
            {
              "internalType": "uint256",
              "name": "tokensSold",
              "type": "uint256"
            },
            {
              "internalType": "uint256",
              "name": "tokensPerBnb",
              "type": "uint256"
            }
          ],
          "internalType": "struct MySignalApp.presaleDetails",
          "name": "",
          "type": "tuple"
        }
      ],
      "stateMutability": "view",
      "type": "function"
    },
    {
      "inputs": [
        {
          "internalType": "address",
          "name": "_addr",
          "type": "address"
        }
      ],
      "name": "getProviderBalance",
      "outputs": [
        {
          "internalType": "uint256",
          "name": "",
          "type": "uint256"
        }
      ],
      "stateMutability": "view",
      "type": "function"
    },
    {
      "inputs": [
        {
          "internalType": "address",
          "name": "_addr",
          "type": "address"
        }
      ],
      "name": "getReferrerBalance",
      "outputs": [
        {
          "internalType": "uint256",
          "name": "",
          "type": "uint256"
        }
      ],
      "stateMutability": "view",
      "type": "function"
    },
    {
      "inputs": [],
      "name": "getRegistrarBalance",
      "outputs": [
        {
          "internalType": "uint256",
          "name": "",
          "type": "uint256"
        }
      ],
      "stateMutability": "view",
      "type": "function"
    },
    {
      "inputs": [],
      "name": "i_merkleRoot",
      "outputs": [
        {
          "internalType": "bytes32",
          "name": "",
          "type": "bytes32"
        }
      ],
      "stateMutability": "view",
      "type": "function"
    },
    {
      "inputs": [
        {
          "internalType": "address",
          "name": "spender",
          "type": "address"
        },
        {
          "internalType": "uint256",
          "name": "addedValue",
          "type": "uint256"
        }
      ],
      "name": "increaseAllowance",
      "outputs": [
        {
          "internalType": "bool",
          "name": "",
          "type": "bool"
        }
      ],
      "stateMutability": "nonpayable",
      "type": "function"
    },
    {
      "inputs": [
        {
          "internalType": "uint256",
          "name": "totalSupply",
          "type": "uint256"
        },
        {
          "internalType": "uint256",
          "name": "preSaleAmount",
          "type": "uint256"
        },
        {
          "internalType": "uint256",
          "name": "tokensPerBnb",
          "type": "uint256"
        }
      ],
      "name": "initialize",
      "outputs": [],
      "stateMutability": "nonpayable",
      "type": "function"
    },
    {
      "inputs": [
        {
          "internalType": "address",
          "name": "_addr",
          "type": "address"
        }
      ],
      "name": "isValidProvider",
      "outputs": [
        {
          "internalType": "bool",
          "name": "",
          "type": "bool"
        }
      ],
      "stateMutability": "view",
      "type": "function"
    },
    {
      "inputs": [],
      "name": "name",
      "outputs": [
        {
          "internalType": "string",
          "name": "",
          "type": "string"
        }
      ],
      "stateMutability": "view",
      "type": "function"
    },
    {
      "inputs": [
        {
          "internalType": "address",
          "name": "_provider",
          "type": "address"
        },
        {
          "internalType": "address",
          "name": "_referrer",
          "type": "address"
        },
        {
          "internalType": "uint256",
          "name": "_signalId",
          "type": "uint256"
        },
        {
          "internalType": "string",
          "name": "_userId",
          "type": "string"
        }
      ],
      "name": "payProvider",
      "outputs": [],
      "stateMutability": "nonpayable",
      "type": "function"
    },
    {
      "inputs": [
        {
          "internalType": "address",
          "name": "_newAddr",
          "type": "address"
        }
      ],
      "name": "providerChangeAddress",
      "outputs": [],
      "stateMutability": "nonpayable",
      "type": "function"
    },
    {
      "inputs": [
        {
          "internalType": "uint256",
          "name": "_amount",
          "type": "uint256"
        }
      ],
      "name": "providerWithdraw",
      "outputs": [],
      "stateMutability": "nonpayable",
      "type": "function"
    },
    {
      "inputs": [],
      "name": "referrerWithdraw",
      "outputs": [],
      "stateMutability": "nonpayable",
      "type": "function"
    },
    {
      "inputs": [
        {
          "internalType": "uint256",
          "name": "_amount",
          "type": "uint256"
        }
      ],
      "name": "registrarWithdraw",
      "outputs": [],
      "stateMutability": "nonpayable",
      "type": "function"
    },
    {
      "inputs": [],
      "name": "s_airdropBalance",
      "outputs": [
        {
          "internalType": "uint256",
          "name": "",
          "type": "uint256"
        }
      ],
      "stateMutability": "view",
      "type": "function"
    },
    {
      "inputs": [],
      "name": "s_isInitialized",
      "outputs": [
        {
          "internalType": "bool",
          "name": "",
          "type": "bool"
        }
      ],
      "stateMutability": "view",
      "type": "function"
    },
    {
      "inputs": [],
      "name": "s_isPresale",
      "outputs": [
        {
          "internalType": "bool",
          "name": "",
          "type": "bool"
        }
      ],
      "stateMutability": "view",
      "type": "function"
    },
    {
      "inputs": [],
      "name": "s_maxBuy",
      "outputs": [
        {
          "internalType": "uint256",
          "name": "",
          "type": "uint256"
        }
      ],
      "stateMutability": "view",
      "type": "function"
    },
    {
      "inputs": [],
      "name": "s_minBuy",
      "outputs": [
        {
          "internalType": "uint256",
          "name": "",
          "type": "uint256"
        }
      ],
      "stateMutability": "view",
      "type": "function"
    },
    {
      "inputs": [],
      "name": "s_tokensPerBnb",
      "outputs": [
        {
          "internalType": "uint256",
          "name": "",
          "type": "uint256"
        }
      ],
      "stateMutability": "view",
      "type": "function"
    },
    {
      "inputs": [],
      "name": "startPreSale",
      "outputs": [],
      "stateMutability": "nonpayable",
      "type": "function"
    },
    {
      "inputs": [],
      "name": "symbol",
      "outputs": [
        {
          "internalType": "string",
          "name": "",
          "type": "string"
        }
      ],
      "stateMutability": "view",
      "type": "function"
    },
    {
      "inputs": [],
      "name": "totalSupply",
      "outputs": [
        {
          "internalType": "uint256",
          "name": "",
          "type": "uint256"
        }
      ],
      "stateMutability": "view",
      "type": "function"
    },
    {
      "inputs": [
        {
          "internalType": "address",
          "name": "to",
          "type": "address"
        },
        {
          "internalType": "uint256",
          "name": "amount",
          "type": "uint256"
        }
      ],
      "name": "transfer",
      "outputs": [
        {
          "internalType": "bool",
          "name": "",
          "type": "bool"
        }
      ],
      "stateMutability": "nonpayable",
      "type": "function"
    },
    {
      "inputs": [
        {
          "internalType": "address",
          "name": "from",
          "type": "address"
        },
        {
          "internalType": "address",
          "name": "to",
          "type": "address"
        },
        {
          "internalType": "uint256",
          "name": "amount",
          "type": "uint256"
        }
      ],
      "name": "transferFrom",
      "outputs": [
        {
          "internalType": "bool",
          "name": "",
          "type": "bool"
        }
      ],
      "stateMutability": "nonpayable",
      "type": "function"
    },
    {
      "inputs": [],
      "name": "withdrawPreSale",
      "outputs": [],
      "stateMutability": "nonpayable",
      "type": "function"
    },
    {
      "stateMutability": "payable",
      "type": "receive"
    }
  ],
  "transactionHash": "0x69e66944911cab8f2d8115c1a14a8f3ed884ba9404c72ebfecc1e6f2553fb575",
  "args": [
    "0xba662818b2d76a0592335d9b99D4a952B38062fC",
    "0xba662818b2d76a0592335d9b99D4a952B38062fC",
    "100000000000000000",
    "0x8a0db483eeb16efd4172b3ee12af927839f58b8322df6980f9bfbd4c78e0a596",
    "6525215000000000000000000"
  ],
  "numDeployments": 1,
  "solcInputHash": "03a35633c6bc37163de7615125c8d848",
  "bytecode": "0x60a060405267016345785d8a0000600955670de0b6b3a7640000600a553480156200002957600080fd5b5060405162002f6238038062002f628339810160408190526200004c9162000209565b6040518060400160405280600d81526020016c29b4b3b730b639902a37b5b2b760991b815250604051806040016040528060038152602001622c29a760e91b81525081600390816200009f919062000300565b506004620000ae828262000300565b5050601180546001600160a01b03199081166001600160a01b038981169182179093556000908152601360205260409020805460ff19166001179055601280549091169187169190911790555060058190556007839055608082905262000116308262000121565b5050505050620003f4565b6001600160a01b0382166200017c5760405162461bcd60e51b815260206004820152601f60248201527f45524332303a206d696e7420746f20746865207a65726f206164647265737300604482015260640160405180910390fd5b8060026000828254620001909190620003cc565b90915550506001600160a01b038216600081815260208181526040808320805486019055518481527fddf252ad1be2c89b69c2b068fc378daa952ba7f163c4a11628f55a4df523b3ef910160405180910390a35050565b505050565b80516001600160a01b03811681146200020457600080fd5b919050565b600080600080600060a086880312156200022257600080fd5b6200022d86620001ec565b94506200023d60208701620001ec565b6040870151606088015160809098015196999198509695945092505050565b634e487b7160e01b600052604160045260246000fd5b600181811c908216806200028757607f821691505b602082108103620002a857634e487b7160e01b600052602260045260246000fd5b50919050565b601f821115620001e757600081815260208120601f850160051c81016020861015620002d75750805b601f850160051c820191505b81811015620002f857828155600101620002e3565b505050505050565b81516001600160401b038111156200031c576200031c6200025c565b62000334816200032d845462000272565b84620002ae565b602080601f8311600181146200036c5760008415620003535750858301515b600019600386901b1c1916600185901b178555620002f8565b600085815260208120601f198616915b828110156200039d578886015182559484019460019091019084016200037c565b5085821015620003bc5787850151600019600388901b60f8161c191681555b5050505050600190811b01905550565b80820180821115620003ee57634e487b7160e01b600052601160045260246000fd5b92915050565b608051612b4b6200041760003960008181610a020152610e3f0152612b4b6000f3fe6080604052600436106102d55760003560e01c8063576cf667116101795780639e2176f9116100d6578063b2bbefdb1161008a578063db7f967911610064578063db7f967914610a39578063dd62ed3e14610a4e578063ee889ed014610aa157600080fd5b8063b2bbefdb146109aa578063c73b959b146109f0578063ced72f8714610a2457600080fd5b8063a89e6edd116100bb578063a89e6edd14610931578063a9059cbb14610947578063abc3bc921461096757600080fd5b80639e2176f9146108f1578063a457c2d71461091157600080fd5b806380d859111161012d5780638a3def65116101125780638a3def65146108a757806395d89b41146108c75780639b2f9842146108dc57600080fd5b806380d8591114610844578063832eea0c1461086457600080fd5b80636fb1338b1161015e5780636fb1338b146107ae57806370a08231146107e157806376b588101461082457600080fd5b8063576cf6671461076e5780636a1db1bf1461078e57600080fd5b80632e41b5901161023257806333fd7b07116101e657806346e2577a116101c057806346e2577a146106d85780634729376b146106f857806355dd574c1461075957600080fd5b806333fd7b07146106715780633921c41d1461068657806339509351146106b857600080fd5b8063313ce56711610217578063313ce567146106155780633272b7b7146106315780633335252b1461065157600080fd5b80632e41b590146105df5780632ee7e4a6146105ff57600080fd5b80631d7f80ae1161028957806325d638e51161026e57806325d638e51461059657806325fe7b7f146105a95780632b96942b146105bf57600080fd5b80631d7f80ae1461055657806323b872dd1461057657600080fd5b806318160ddd116102ba57806318160ddd14610501578063183473f41461052057806319a542971461054057600080fd5b806306fdde03146104a6578063095ea7b3146104d157600080fd5b366104a15760125474010000000000000000000000000000000000000000900460ff166102fe57005b60095434108061030f5750600a5434115b8061032b5750600a543360009081526017602052604090205410155b15610362576040517f7c515e3e00000000000000000000000000000000000000000000000000000000815260040160405180910390fd5b60006008543461037291906126c9565b905080600b6003015410156103b3576040517fec52c3c600000000000000000000000000000000000000000000000000000000815260040160405180910390fd5b34600b60010160008282546103c891906126e0565b9091555050600d80543491906000906103e29084906126e0565b9091555050600b80549060006103f7836126f3565b919050555080600b6003016000828254610411919061272b565b9091555050600f805482919060009061042b9084906126e0565b9091555050336000908152601760205260408120805434929061044f9084906126e0565b9091555050604080513381523460208201529081018290527fcefc009576cd0af550258c26c1d32581f56d12a2396adcdb3c064c3de21880959060600160405180910390a161049f303383610ab6565b005b600080fd5b3480156104b257600080fd5b506104bb610d2c565b6040516104c8919061273e565b60405180910390f35b3480156104dd57600080fd5b506104f16104ec3660046127d3565b610dbe565b60405190151581526020016104c8565b34801561050d57600080fd5b506002545b6040519081526020016104c8565b34801561052c57600080fd5b506104f161053b3660046127fd565b610dd8565b34801561054c57600080fd5b5061051260095481565b34801561056257600080fd5b5061049f610571366004612878565b610e74565b34801561058257600080fd5b506104f1610591366004612893565b610f8c565b3480156105a257600080fd5b5047610512565b3480156105b557600080fd5b5061051260055481565b3480156105cb57600080fd5b5061049f6105da3660046128cf565b610fb0565b3480156105eb57600080fd5b5061049f6105fa3660046128e8565b61112f565b34801561060b57600080fd5b50610512600a5481565b34801561062157600080fd5b50604051601281526020016104c8565b34801561063d57600080fd5b5061049f61064c366004612983565b6113e8565b34801561065d57600080fd5b5061049f61066c3660046127fd565b611467565b34801561067d57600080fd5b5061049f61158a565b34801561069257600080fd5b506012546104f19074010000000000000000000000000000000000000000900460ff1681565b3480156106c457600080fd5b506104f16106d33660046127d3565b6115ae565b3480156106e457600080fd5b5061049f6106f3366004612878565b6115fa565b34801561070457600080fd5b5061070d61171d565b6040516104c89190600060c082019050825182526020830151602083015260408301516040830152606083015160608301526080830151608083015260a083015160a083015292915050565b34801561076557600080fd5b5061049f611793565b34801561077a57600080fd5b5061049f610789366004612878565b6118b6565b34801561079a57600080fd5b5061049f6107a93660046128cf565b6119d3565b3480156107ba57600080fd5b506012546104f1907501000000000000000000000000000000000000000000900460ff1681565b3480156107ed57600080fd5b506105126107fc366004612878565b73ffffffffffffffffffffffffffffffffffffffff1660009081526020819052604090205490565b34801561083057600080fd5b5061049f61083f366004612878565b611a62565b34801561085057600080fd5b5061049f61085f3660046129a5565b611b7f565b34801561087057600080fd5b5061051261087f366004612878565b73ffffffffffffffffffffffffffffffffffffffff1660009081526014602052604090205490565b3480156108b357600080fd5b5061049f6108c23660046128cf565b611ce7565b3480156108d357600080fd5b506104bb611d97565b3480156108e857600080fd5b50600654610512565b3480156108fd57600080fd5b5061049f61090c3660046128cf565b611da6565b34801561091d57600080fd5b506104f161092c3660046127d3565b611ea0565b34801561093d57600080fd5b5061051260085481565b34801561095357600080fd5b506104f16109623660046127d3565b611f71565b34801561097357600080fd5b50610512610982366004612878565b73ffffffffffffffffffffffffffffffffffffffff1660009081526015602052604090205490565b3480156109b657600080fd5b506104f16109c5366004612878565b73ffffffffffffffffffffffffffffffffffffffff1660009081526013602052604090205460ff1690565b3480156109fc57600080fd5b506105127f000000000000000000000000000000000000000000000000000000000000000081565b348015610a3057600080fd5b50600754610512565b348015610a4557600080fd5b5061049f611f7f565b348015610a5a57600080fd5b50610512610a693660046129d1565b73ffffffffffffffffffffffffffffffffffffffff918216600090815260016020908152604080832093909416825291909152205490565b348015610aad57600080fd5b5061049f61203e565b73ffffffffffffffffffffffffffffffffffffffff8316610b5e576040517f08c379a000000000000000000000000000000000000000000000000000000000815260206004820152602560248201527f45524332303a207472616e736665722066726f6d20746865207a65726f20616460448201527f647265737300000000000000000000000000000000000000000000000000000060648201526084015b60405180910390fd5b73ffffffffffffffffffffffffffffffffffffffff8216610c01576040517f08c379a000000000000000000000000000000000000000000000000000000000815260206004820152602360248201527f45524332303a207472616e7366657220746f20746865207a65726f206164647260448201527f65737300000000000000000000000000000000000000000000000000000000006064820152608401610b55565b73ffffffffffffffffffffffffffffffffffffffff831660009081526020819052604090205481811015610cb7576040517f08c379a000000000000000000000000000000000000000000000000000000000815260206004820152602660248201527f45524332303a207472616e7366657220616d6f756e742065786365656473206260448201527f616c616e636500000000000000000000000000000000000000000000000000006064820152608401610b55565b73ffffffffffffffffffffffffffffffffffffffff848116600081815260208181526040808320878703905593871680835291849020805487019055925185815290927fddf252ad1be2c89b69c2b068fc378daa952ba7f163c4a11628f55a4df523b3ef910160405180910390a35b50505050565b606060038054610d3b90612a04565b80601f0160208091040260200160405190810160405280929190818152602001828054610d6790612a04565b8015610db45780601f10610d8957610100808354040283529160200191610db4565b820191906000526020600020905b815481529060010190602001808311610d9757829003601f168201915b5050505050905090565b600033610dcc8185856120ca565b60019150505b92915050565b6040805133602082015290810182905260009081906060016040516020818303038152906040528051906020012090506000610e6a8686808060200260200160405190810160405280939291908181526020018383602002808284376000920191909152507f0000000000000000000000000000000000000000000000000000000000000000925086915061227d9050565b9695505050505050565b3360009081526013602052604090205460ff16610ebd576040517fa41eb8c200000000000000000000000000000000000000000000000000000000815260040160405180910390fd5b336000818152601460209081526040808320805490849055601390925280832080547fffffffffffffffffffffffffffffffffffffffffffffffffffffffffffffff0090811690915573ffffffffffffffffffffffffffffffffffffffff861684529220805490921660011790915590610f3990309083610ab6565b6040805133815273ffffffffffffffffffffffffffffffffffffffff841660208201527f5bbda34f4283e006dc680407c75f3f17c43d2869c203923c1331d3800398a71b91015b60405180910390a15050565b600033610f9a858285612293565b610fa5858585610ab6565b506001949350505050565b60125474010000000000000000000000000000000000000000900460ff1615611005576040517f3b9556f800000000000000000000000000000000000000000000000000000000815260040160405180910390fd5b60125473ffffffffffffffffffffffffffffffffffffffff163314611056576040517f824f28fa00000000000000000000000000000000000000000000000000000000815260040160405180910390fd5b47811115611090576040517f882b286b00000000000000000000000000000000000000000000000000000000815260040160405180910390fd5b60003373ffffffffffffffffffffffffffffffffffffffff16826040515b60006040518083038185875af1925050503d80600081146110eb576040519150601f19603f3d011682016040523d82523d6000602084013e6110f0565b606091505b505090508061112b576040517f1f2f4bab00000000000000000000000000000000000000000000000000000000815260040160405180910390fd5b5050565b73ffffffffffffffffffffffffffffffffffffffff851660009081526013602052604090205460ff1661118e576040517fa41eb8c200000000000000000000000000000000000000000000000000000000815260040160405180910390fd5b600754600060646111a08360326126c9565b6111aa9190612a57565b905073ffffffffffffffffffffffffffffffffffffffff86161561130d57600060646111d784601e6126c9565b6111e19190612a57565b9050600060646111f28560146126c9565b6111fc9190612a57565b73ffffffffffffffffffffffffffffffffffffffff8a166000908152601460205260408120805492935085929091906112369084906126e0565b909155505073ffffffffffffffffffffffffffffffffffffffff8816600090815260156020526040812080548392906112709084906126e0565b92505081905550816006600082825461128991906126e0565b9091555061129a9050333086610ab6565b868873ffffffffffffffffffffffffffffffffffffffff168a73ffffffffffffffffffffffffffffffffffffffff167f8796fed90e2848cb224d49106d22a29aa40c22c1a2b21acd42d9bce9423713e2868a8a6040516112fc93929190612a92565b60405180910390a4505050506113e1565b73ffffffffffffffffffffffffffffffffffffffff8716600090815260146020526040812080548392906113429084906126e0565b909155506113529050818361272b565b6006600082825461136391906126e0565b909155506113749050333084610ab6565b848673ffffffffffffffffffffffffffffffffffffffff168873ffffffffffffffffffffffffffffffffffffffff167f8796fed90e2848cb224d49106d22a29aa40c22c1a2b21acd42d9bce9423713e28488886040516113d693929190612a92565b60405180910390a450505b5050505050565b60115473ffffffffffffffffffffffffffffffffffffffff163314611439576040517fece6d48800000000000000000000000000000000000000000000000000000000815260040160405180910390fd5b60125474010000000000000000000000000000000000000000900460ff161561112b57600991909155600a55565b3360009081526016602052604090205460ff16156114b1576040517f68ac8e6900000000000000000000000000000000000000000000000000000000815260040160405180910390fd5b6114bc838383610dd8565b6114f2576040517f1845a60f00000000000000000000000000000000000000000000000000000000815260040160405180910390fd5b33600090815260166020526040812080547fffffffffffffffffffffffffffffffffffffffffffffffffffffffffffffff001660011790556005805483929061153c90849061272b565b909155505060408051338152602081018390527f650e45f04ef8a0c267b2f78d983913f69ae3a353b2b32de5429307522be0ab55910160405180910390a1611585303383610ab6565b505050565b3360008181526015602052604081208054919055906115ab90309083610ab6565b50565b33600081815260016020908152604080832073ffffffffffffffffffffffffffffffffffffffff87168452909152812054909190610dcc90829086906115f59087906126e0565b6120ca565b60115473ffffffffffffffffffffffffffffffffffffffff16331461164b576040517fece6d48800000000000000000000000000000000000000000000000000000000815260040160405180910390fd5b73ffffffffffffffffffffffffffffffffffffffff8116611698576040517f247e2d4a00000000000000000000000000000000000000000000000000000000815260040160405180910390fd5b73ffffffffffffffffffffffffffffffffffffffff811660008181526013602090815260409182902080547fffffffffffffffffffffffffffffffffffffffffffffffffffffffffffffff0016600117905590519182527fae9c2c6481964847714ce58f65a7f6dcc41d0d8394449bacdf161b5920c4744a910160405180910390a150565b6117566040518060c001604052806000815260200160008152602001600081526020016000815260200160008152602001600081525090565b506040805160c081018252600b548152600c546020820152600d5491810191909152600e546060820152600f54608082015260105460a082015290565b60115473ffffffffffffffffffffffffffffffffffffffff1633146117e4576040517fece6d48800000000000000000000000000000000000000000000000000000000815260040160405180910390fd5b6012547501000000000000000000000000000000000000000000900460ff16801561180f5750600b54155b611875576040517f08c379a000000000000000000000000000000000000000000000000000000000815260206004820152601160248201527f50726573616c65204e6f742052656164790000000000000000000000000000006044820152606401610b55565b601280547fffffffffffffffffffffff00ffffffffffffffffffffffffffffffffffffffff1674010000000000000000000000000000000000000000179055565b60125473ffffffffffffffffffffffffffffffffffffffff163314611907576040517f824f28fa00000000000000000000000000000000000000000000000000000000815260040160405180910390fd5b73ffffffffffffffffffffffffffffffffffffffff8116611954576040517f247e2d4a00000000000000000000000000000000000000000000000000000000815260040160405180910390fd5b6012805473ffffffffffffffffffffffffffffffffffffffff8381167fffffffffffffffffffffffff000000000000000000000000000000000000000083168117909355604080519190921680825260208201939093527f9cfd98ce2b0572a77cf9d71bacef7955c853a989204db1ce37fbee74f280d35b9101610f80565b60115473ffffffffffffffffffffffffffffffffffffffff163314611a24576040517fece6d48800000000000000000000000000000000000000000000000000000000815260040160405180910390fd5b600780549082905560408051828152602081018490527fa995ac7c2dc5fdc05b41983e69d4d9fbd224a8528bc7d86eabfd533cd3ca44979101610f80565b60115473ffffffffffffffffffffffffffffffffffffffff163314611ab3576040517fece6d48800000000000000000000000000000000000000000000000000000000815260040160405180910390fd5b73ffffffffffffffffffffffffffffffffffffffff8116611b00576040517f247e2d4a00000000000000000000000000000000000000000000000000000000815260040160405180910390fd5b6011805473ffffffffffffffffffffffffffffffffffffffff8381167fffffffffffffffffffffffff000000000000000000000000000000000000000083168117909355604080519190921680825260208201939093527faa91ef4e7d0a22f1b92d0eb50b6e60b1034e11c61318a81e150143d5715ebb399101610f80565b60115473ffffffffffffffffffffffffffffffffffffffff163314611bd0576040517fece6d48800000000000000000000000000000000000000000000000000000000815260040160405180910390fd5b6012547501000000000000000000000000000000000000000000900460ff1615611c26576040517f8657fcf000000000000000000000000000000000000000000000000000000000815260040160405180910390fd5b601280547fffffffffffffffffffff00ffffffffffffffffffffffffffffffffffffffffff167501000000000000000000000000000000000000000000179055600554600090611c76848661272b565b611c80919061272b565b6040805160c081018252600080825260208201819052918101829052606081018690526080810182905260a001849052600b819055600c819055600d819055600e859055600f55601083905560088390559050611cdd3382612364565b610d263084612364565b60115473ffffffffffffffffffffffffffffffffffffffff163314611d38576040517fece6d48800000000000000000000000000000000000000000000000000000000815260040160405180910390fd5b600654811115611d74576040517f882b286b00000000000000000000000000000000000000000000000000000000815260040160405180910390fd5b8060066000828254611d86919061272b565b909155506115ab9050303383610ab6565b606060048054610d3b90612a04565b3360009081526013602052604090205460ff16611def576040517fa41eb8c200000000000000000000000000000000000000000000000000000000815260040160405180910390fd5b33600090815260146020526040902054811115611e38576040517f882b286b00000000000000000000000000000000000000000000000000000000815260040160405180910390fd5b3360009081526014602052604081208054839290611e5790849061272b565b90915550611e689050303383610ab6565b60405181815233907f12e802b6ed6e970b958406df898001b6336cab376c17f335ea72d122ecdf3c2d9060200160405180910390a250565b33600081815260016020908152604080832073ffffffffffffffffffffffffffffffffffffffff8716845290915281205490919083811015611f64576040517f08c379a000000000000000000000000000000000000000000000000000000000815260206004820152602560248201527f45524332303a2064656372656173656420616c6c6f77616e63652062656c6f7760448201527f207a65726f0000000000000000000000000000000000000000000000000000006064820152608401610b55565b610fa582868684036120ca565b600033610dcc818585610ab6565b60115473ffffffffffffffffffffffffffffffffffffffff163314611fd0576040517fece6d48800000000000000000000000000000000000000000000000000000000815260040160405180910390fd5b60125474010000000000000000000000000000000000000000900460ff1615612025576040517f3b9556f800000000000000000000000000000000000000000000000000000000815260040160405180910390fd5b600d8054600091829055604051909190339083906110ae565b60115473ffffffffffffffffffffffffffffffffffffffff16331461208f576040517fece6d48800000000000000000000000000000000000000000000000000000000815260040160405180910390fd5b601280547fffffffffffffffffffffff00ffffffffffffffffffffffffffffffffffffffff169055600e805460009091556115ab3082612457565b73ffffffffffffffffffffffffffffffffffffffff831661216c576040517f08c379a0000000000000000000000000000000000000000000000000000000008152602060048201526024808201527f45524332303a20617070726f76652066726f6d20746865207a65726f2061646460448201527f72657373000000000000000000000000000000000000000000000000000000006064820152608401610b55565b73ffffffffffffffffffffffffffffffffffffffff821661220f576040517f08c379a000000000000000000000000000000000000000000000000000000000815260206004820152602260248201527f45524332303a20617070726f766520746f20746865207a65726f20616464726560448201527f73730000000000000000000000000000000000000000000000000000000000006064820152608401610b55565b73ffffffffffffffffffffffffffffffffffffffff83811660008181526001602090815260408083209487168084529482529182902085905590518481527f8c5be1e5ebec7d5bd14f71427d1e84f3dd0314c0f7b2291e5b200ac8c7c3b925910160405180910390a3505050565b60008261228a858461261b565b14949350505050565b73ffffffffffffffffffffffffffffffffffffffff8381166000908152600160209081526040808320938616835292905220547fffffffffffffffffffffffffffffffffffffffffffffffffffffffffffffffff8114610d265781811015612357576040517f08c379a000000000000000000000000000000000000000000000000000000000815260206004820152601d60248201527f45524332303a20696e73756666696369656e7420616c6c6f77616e63650000006044820152606401610b55565b610d2684848484036120ca565b73ffffffffffffffffffffffffffffffffffffffff82166123e1576040517f08c379a000000000000000000000000000000000000000000000000000000000815260206004820152601f60248201527f45524332303a206d696e7420746f20746865207a65726f2061646472657373006044820152606401610b55565b80600260008282546123f391906126e0565b909155505073ffffffffffffffffffffffffffffffffffffffff8216600081815260208181526040808320805486019055518481527fddf252ad1be2c89b69c2b068fc378daa952ba7f163c4a11628f55a4df523b3ef910160405180910390a35050565b73ffffffffffffffffffffffffffffffffffffffff82166124fa576040517f08c379a000000000000000000000000000000000000000000000000000000000815260206004820152602160248201527f45524332303a206275726e2066726f6d20746865207a65726f2061646472657360448201527f73000000000000000000000000000000000000000000000000000000000000006064820152608401610b55565b73ffffffffffffffffffffffffffffffffffffffff8216600090815260208190526040902054818110156125b0576040517f08c379a000000000000000000000000000000000000000000000000000000000815260206004820152602260248201527f45524332303a206275726e20616d6f756e7420657863656564732062616c616e60448201527f63650000000000000000000000000000000000000000000000000000000000006064820152608401610b55565b73ffffffffffffffffffffffffffffffffffffffff83166000818152602081815260408083208686039055600280548790039055518581529192917fddf252ad1be2c89b69c2b068fc378daa952ba7f163c4a11628f55a4df523b3ef910160405180910390a3505050565b600081815b84518110156126605761264c8286838151811061263f5761263f612ae6565b6020026020010151612668565b915080612658816126f3565b915050612620565b509392505050565b6000818310612684576000828152602084905260409020612693565b60008381526020839052604090205b9392505050565b7f4e487b7100000000000000000000000000000000000000000000000000000000600052601160045260246000fd5b8082028115828204841417610dd257610dd261269a565b80820180821115610dd257610dd261269a565b60007fffffffffffffffffffffffffffffffffffffffffffffffffffffffffffffffff82036127245761272461269a565b5060010190565b81810381811115610dd257610dd261269a565b600060208083528351808285015260005b8181101561276b5785810183015185820160400152820161274f565b5060006040828601015260407fffffffffffffffffffffffffffffffffffffffffffffffffffffffffffffffe0601f8301168501019250505092915050565b803573ffffffffffffffffffffffffffffffffffffffff811681146127ce57600080fd5b919050565b600080604083850312156127e657600080fd5b6127ef836127aa565b946020939093013593505050565b60008060006040848603121561281257600080fd5b833567ffffffffffffffff8082111561282a57600080fd5b818601915086601f83011261283e57600080fd5b81358181111561284d57600080fd5b8760208260051b850101111561286257600080fd5b6020928301989097509590910135949350505050565b60006020828403121561288a57600080fd5b612693826127aa565b6000806000606084860312156128a857600080fd5b6128b1846127aa565b92506128bf602085016127aa565b9150604084013590509250925092565b6000602082840312156128e157600080fd5b5035919050565b60008060008060006080868803121561290057600080fd5b612909866127aa565b9450612917602087016127aa565b935060408601359250606086013567ffffffffffffffff8082111561293b57600080fd5b818801915088601f83011261294f57600080fd5b81358181111561295e57600080fd5b89602082850101111561297057600080fd5b9699959850939650602001949392505050565b6000806040838503121561299657600080fd5b50508035926020909101359150565b6000806000606084860312156129ba57600080fd5b505081359360208301359350604090920135919050565b600080604083850312156129e457600080fd5b6129ed836127aa565b91506129fb602084016127aa565b90509250929050565b600181811c90821680612a1857607f821691505b602082108103612a51577f4e487b7100000000000000000000000000000000000000000000000000000000600052602260045260246000fd5b50919050565b600082612a8d577f4e487b7100000000000000000000000000000000000000000000000000000000600052601260045260246000fd5b500490565b83815260406020820152816040820152818360608301376000818301606090810191909152601f9092017fffffffffffffffffffffffffffffffffffffffffffffffffffffffffffffffe016010192915050565b7f4e487b7100000000000000000000000000000000000000000000000000000000600052603260045260246000fdfea26469706673582212201b840515f8eb863bfdc6a0c26c26fd071c1239ae558518f770d37d3b7bbcab8164736f6c63430008120033",
  "devdoc": {
    "events": {
      "Approval(address,address,uint256)": {
        "details": "Emitted when the allowance of a `spender` for an `owner` is set by a call to {approve}. `value` is the new allowance."
      },
      "Transfer(address,address,uint256)": {
        "details": "Emitted when `value` tokens are moved from one account (`from`) to another (`to`). Note that `value` may be zero."
      }
    },
    "kind": "dev",
    "methods": {
      "allowance(address,address)": {
        "details": "See {IERC20-allowance}."
      },
      "approve(address,uint256)": {
        "details": "See {IERC20-approve}. NOTE: If `amount` is the maximum `uint256`, the allowance is not updated on `transferFrom`. This is semantically equivalent to an infinite approval. Requirements: - `spender` cannot be the zero address."
      },
      "balanceOf(address)": {
        "details": "See {IERC20-balanceOf}."
      },
      "decimals()": {
        "details": "Returns the number of decimals used to get its user representation. For example, if `decimals` equals `2`, a balance of `505` tokens should be displayed to a user as `5.05` (`505 / 10 ** 2`). Tokens usually opt for a value of 18, imitating the relationship between Ether and Wei. This is the value {ERC20} uses, unless this function is overridden; NOTE: This information is only used for _display_ purposes: it in no way affects any of the arithmetic of the contract, including {IERC20-balanceOf} and {IERC20-transfer}."
      },
      "decreaseAllowance(address,uint256)": {
        "details": "Atomically decreases the allowance granted to `spender` by the caller. This is an alternative to {approve} that can be used as a mitigation for problems described in {IERC20-approve}. Emits an {Approval} event indicating the updated allowance. Requirements: - `spender` cannot be the zero address. - `spender` must have allowance for the caller of at least `subtractedValue`."
      },
      "increaseAllowance(address,uint256)": {
        "details": "Atomically increases the allowance granted to `spender` by the caller. This is an alternative to {approve} that can be used as a mitigation for problems described in {IERC20-approve}. Emits an {Approval} event indicating the updated allowance. Requirements: - `spender` cannot be the zero address."
      },
      "name()": {
        "details": "Returns the name of the token."
      },
      "symbol()": {
        "details": "Returns the symbol of the token, usually a shorter version of the name."
      },
      "totalSupply()": {
        "details": "See {IERC20-totalSupply}."
      },
      "transfer(address,uint256)": {
        "details": "See {IERC20-transfer}. Requirements: - `to` cannot be the zero address. - the caller must have a balance of at least `amount`."
      },
      "transferFrom(address,address,uint256)": {
        "details": "See {IERC20-transferFrom}. Emits an {Approval} event indicating the updated allowance. This is not required by the EIP. See the note at the beginning of {ERC20}. NOTE: Does not update the allowance if the current allowance is the maximum `uint256`. Requirements: - `from` and `to` cannot be the zero address. - `from` must have a balance of at least `amount`. - the caller must have allowance for ``from``'s tokens of at least `amount`."
      }
    },
    "version": 1
  },
  "userdoc": {
    "kind": "user",
    "methods": {},
    "version": 1
  },
  "storageLayout": {
    "storage": [
      {
        "astId": 15,
        "contract": "contracts/MySignalApp.sol:MySignalApp",
        "label": "_balances",
        "offset": 0,
        "slot": "0",
        "type": "t_mapping(t_address,t_uint256)"
      },
      {
        "astId": 21,
        "contract": "contracts/MySignalApp.sol:MySignalApp",
        "label": "_allowances",
        "offset": 0,
        "slot": "1",
        "type": "t_mapping(t_address,t_mapping(t_address,t_uint256))"
      },
      {
        "astId": 23,
        "contract": "contracts/MySignalApp.sol:MySignalApp",
        "label": "_totalSupply",
        "offset": 0,
        "slot": "2",
        "type": "t_uint256"
      },
      {
        "astId": 25,
        "contract": "contracts/MySignalApp.sol:MySignalApp",
        "label": "_name",
        "offset": 0,
        "slot": "3",
        "type": "t_string_storage"
      },
      {
        "astId": 27,
        "contract": "contracts/MySignalApp.sol:MySignalApp",
        "label": "_symbol",
        "offset": 0,
        "slot": "4",
        "type": "t_string_storage"
      },
      {
        "astId": 1249,
        "contract": "contracts/MySignalApp.sol:MySignalApp",
        "label": "s_airdropBalance",
        "offset": 0,
        "slot": "5",
        "type": "t_uint256"
      },
      {
        "astId": 1251,
        "contract": "contracts/MySignalApp.sol:MySignalApp",
        "label": "s_registrarBalance",
        "offset": 0,
        "slot": "6",
        "type": "t_uint256"
      },
      {
        "astId": 1253,
        "contract": "contracts/MySignalApp.sol:MySignalApp",
        "label": "s_fees",
        "offset": 0,
        "slot": "7",
        "type": "t_uint256"
      },
      {
        "astId": 1255,
        "contract": "contracts/MySignalApp.sol:MySignalApp",
        "label": "s_tokensPerBnb",
        "offset": 0,
        "slot": "8",
        "type": "t_uint256"
      },
      {
        "astId": 1258,
        "contract": "contracts/MySignalApp.sol:MySignalApp",
        "label": "s_minBuy",
        "offset": 0,
        "slot": "9",
        "type": "t_uint256"
      },
      {
        "astId": 1261,
        "contract": "contracts/MySignalApp.sol:MySignalApp",
        "label": "s_maxBuy",
        "offset": 0,
        "slot": "10",
        "type": "t_uint256"
      },
      {
        "astId": 1277,
        "contract": "contracts/MySignalApp.sol:MySignalApp",
        "label": "s_preSaleDetails",
        "offset": 0,
        "slot": "11",
        "type": "t_struct(presaleDetails)1274_storage"
      },
      {
        "astId": 1281,
        "contract": "contracts/MySignalApp.sol:MySignalApp",
        "label": "s_registrar",
        "offset": 0,
        "slot": "17",
        "type": "t_address"
      },
      {
        "astId": 1283,
        "contract": "contracts/MySignalApp.sol:MySignalApp",
        "label": "s_fallbackAddress",
        "offset": 0,
        "slot": "18",
        "type": "t_address"
      },
      {
        "astId": 1285,
        "contract": "contracts/MySignalApp.sol:MySignalApp",
        "label": "s_isPresale",
        "offset": 20,
        "slot": "18",
        "type": "t_bool"
      },
      {
        "astId": 1287,
        "contract": "contracts/MySignalApp.sol:MySignalApp",
        "label": "s_isInitialized",
        "offset": 21,
        "slot": "18",
        "type": "t_bool"
      },
      {
        "astId": 1291,
        "contract": "contracts/MySignalApp.sol:MySignalApp",
        "label": "s_validProvider",
        "offset": 0,
        "slot": "19",
        "type": "t_mapping(t_address,t_bool)"
      },
      {
        "astId": 1295,
        "contract": "contracts/MySignalApp.sol:MySignalApp",
        "label": "s_providerBalance",
        "offset": 0,
        "slot": "20",
        "type": "t_mapping(t_address,t_uint256)"
      },
      {
        "astId": 1299,
        "contract": "contracts/MySignalApp.sol:MySignalApp",
        "label": "s_referrerBalance",
        "offset": 0,
        "slot": "21",
        "type": "t_mapping(t_address,t_uint256)"
      },
      {
        "astId": 1303,
        "contract": "contracts/MySignalApp.sol:MySignalApp",
        "label": "s_claimedAirdrop",
        "offset": 0,
        "slot": "22",
        "type": "t_mapping(t_address,t_bool)"
      },
      {
        "astId": 1307,
        "contract": "contracts/MySignalApp.sol:MySignalApp",
        "label": "s_addressToTokensDeposited",
        "offset": 0,
        "slot": "23",
        "type": "t_mapping(t_address,t_uint256)"
      }
    ],
    "types": {
      "t_address": {
        "encoding": "inplace",
        "label": "address",
        "numberOfBytes": "20"
      },
      "t_bool": {
        "encoding": "inplace",
        "label": "bool",
        "numberOfBytes": "1"
      },
      "t_mapping(t_address,t_bool)": {
        "encoding": "mapping",
        "key": "t_address",
        "label": "mapping(address => bool)",
        "numberOfBytes": "32",
        "value": "t_bool"
      },
      "t_mapping(t_address,t_mapping(t_address,t_uint256))": {
        "encoding": "mapping",
        "key": "t_address",
        "label": "mapping(address => mapping(address => uint256))",
        "numberOfBytes": "32",
        "value": "t_mapping(t_address,t_uint256)"
      },
      "t_mapping(t_address,t_uint256)": {
        "encoding": "mapping",
        "key": "t_address",
        "label": "mapping(address => uint256)",
        "numberOfBytes": "32",
        "value": "t_uint256"
      },
      "t_string_storage": {
        "encoding": "bytes",
        "label": "string",
        "numberOfBytes": "32"
      },
      "t_struct(presaleDetails)1274_storage": {
        "encoding": "inplace",
        "label": "struct MySignalApp.presaleDetails",
        "members": [
          {
            "astId": 1263,
            "contract": "contracts/MySignalApp.sol:MySignalApp",
            "label": "saleCount",
            "offset": 0,
            "slot": "0",
            "type": "t_uint256"
          },
          {
            "astId": 1265,
            "contract": "contracts/MySignalApp.sol:MySignalApp",
            "label": "amountRaised",
            "offset": 0,
            "slot": "1",
            "type": "t_uint256"
          },
          {
            "astId": 1267,
            "contract": "contracts/MySignalApp.sol:MySignalApp",
            "label": "amountWithdrawable",
            "offset": 0,
            "slot": "2",
            "type": "t_uint256"
          },
          {
            "astId": 1269,
            "contract": "contracts/MySignalApp.sol:MySignalApp",
            "label": "tokensLeft",
            "offset": 0,
            "slot": "3",
            "type": "t_uint256"
          },
          {
            "astId": 1271,
            "contract": "contracts/MySignalApp.sol:MySignalApp",
            "label": "tokensSold",
            "offset": 0,
            "slot": "4",
            "type": "t_uint256"
          },
          {
            "astId": 1273,
            "contract": "contracts/MySignalApp.sol:MySignalApp",
            "label": "tokensPerBnb",
            "offset": 0,
            "slot": "5",
            "type": "t_uint256"
          }
        ],
        "numberOfBytes": "192"
      },
      "t_uint256": {
        "encoding": "inplace",
        "label": "uint256",
        "numberOfBytes": "32"
      }
    }
  }
}