{
  "address": "0x289F0529FBb2eF4e80479079C93F94723CC51780",
  "abi": [
    {
      "inputs": [
        {
          "internalType": "address",
          "name": "_registrar",
          "type": "address"
        },
        {
          "internalType": "address",
          "name": "_fallbackAddress",
          "type": "address"
        },
        {
          "internalType": "uint256",
          "name": "_fee",
          "type": "uint256"
        },
        {
          "internalType": "bytes32",
          "name": "_merkleRoot",
          "type": "bytes32"
        },
        {
          "internalType": "uint256",
          "name": "_airdropBalance",
          "type": "uint256"
        }
      ],
      "stateMutability": "nonpayable",
      "type": "constructor"
    },
    {
      "inputs": [],
      "name": "MySignalApp__AllocationExceedsTokensLeft",
      "type": "error"
    },
    {
      "inputs": [],
      "name": "MySignalApp__AlreadyClaimed",
      "type": "error"
    },
    {
      "inputs": [],
      "name": "MySignalApp__InsufficientBalance",
      "type": "error"
    },
    {
      "inputs": [],
      "name": "MySignalApp__InvalidAddress",
      "type": "error"
    },
    {
      "inputs": [],
      "name": "MySignalApp__InvalidPresalePurchaseAmount",
      "type": "error"
    },
    {
      "inputs": [],
      "name": "MySignalApp__NotFallback",
      "type": "error"
    },
    {
      "inputs": [],
      "name": "MySignalApp__NotInWhitelist",
      "type": "error"
    },
    {
      "inputs": [],
      "name": "MySignalApp__NotInitialized",
      "type": "error"
    },
    {
      "inputs": [],
      "name": "MySignalApp__NotProvider",
      "type": "error"
    },
    {
      "inputs": [],
      "name": "MySignalApp__NotRegistrar",
      "type": "error"
    },
    {
      "inputs": [],
      "name": "MySignalApp__PresaleMustEnd",
      "type": "error"
    },
    {
      "inputs": [],
      "name": "MySignalApp__TransferFailed",
      "type": "error"
    },
    {
      "anonymous": false,
      "inputs": [
        {
          "indexed": false,
          "internalType": "address",
          "name": "oldAddress",
          "type": "address"
        },
        {
          "indexed": false,
          "internalType": "address",
          "name": "newAddress",
          "type": "address"
        }
      ],
      "name": "AddressProviderChange",
      "type": "event"
    },
    {
      "anonymous": false,
      "inputs": [
        {
          "indexed": false,
          "internalType": "address",
          "name": "to",
          "type": "address"
        },
        {
          "indexed": false,
          "internalType": "uint256",
          "name": "amount",
          "type": "uint256"
        }
      ],
      "name": "AirdropClaimed",
      "type": "event"
    },
    {
      "anonymous": false,
      "inputs": [
        {
          "indexed": true,
          "internalType": "address",
          "name": "owner",
          "type": "address"
        },
        {
          "indexed": true,
          "internalType": "address",
          "name": "spender",
          "type": "address"
        },
        {
          "indexed": false,
          "internalType": "uint256",
          "name": "value",
          "type": "uint256"
        }
      ],
      "name": "Approval",
      "type": "event"
    },
    {
      "anonymous": false,
      "inputs": [
        {
          "indexed": true,
          "internalType": "address",
          "name": "provider",
          "type": "address"
        },
        {
          "indexed": true,
          "internalType": "address",
          "name": "referrer",
          "type": "address"
        },
        {
          "indexed": false,
          "internalType": "uint256",
          "name": "amount",
          "type": "uint256"
        },
        {
          "indexed": true,
          "internalType": "uint256",
          "name": "signalId",
          "type": "uint256"
        },
        {
          "indexed": false,
          "internalType": "string",
          "name": "userId",
          "type": "string"
        }
      ],
      "name": "CompensateProvider",
      "type": "event"
    },
    {
      "anonymous": false,
      "inputs": [
        {
          "indexed": false,
          "internalType": "address",
          "name": "oldAddress",
          "type": "address"
        },
        {
          "indexed": false,
          "internalType": "address",
          "name": "newAddress",
          "type": "address"
        }
      ],
      "name": "FallbackChange",
      "type": "event"
    },
    {
      "anonymous": false,
      "inputs": [
        {
          "indexed": false,
          "internalType": "uint256",
          "name": "oldFee",
          "type": "uint256"
        },
        {
          "indexed": false,
          "internalType": "uint256",
          "name": "newFee",
          "type": "uint256"
        }
      ],
      "name": "FeeChange",
      "type": "event"
    },
    {
      "anonymous": false,
      "inputs": [
        {
          "indexed": false,
          "internalType": "address",
          "name": "to",
          "type": "address"
        },
        {
          "indexed": false,
          "internalType": "uint256",
          "name": "amount",
          "type": "uint256"
        },
        {
          "indexed": false,
          "internalType": "uint256",
          "name": "tokensReceived",
          "type": "uint256"
        }
      ],
      "name": "PreSaleTokensPurchased",
      "type": "event"
    },
    {
      "anonymous": false,
      "inputs": [
        {
          "indexed": false,
          "internalType": "address",
          "name": "provider",
          "type": "address"
        }
      ],
      "name": "ProviderAdded",
      "type": "event"
    },
    {
      "anonymous": false,
      "inputs": [
        {
          "indexed": true,
          "internalType": "address",
          "name": "provider",
          "type": "address"
        },
        {
          "indexed": false,
          "internalType": "uint256",
          "name": "amount",
          "type": "uint256"
        }
      ],
      "name": "ProviderWithdraw",
      "type": "event"
    },
    {
      "anonymous": false,
      "inputs": [
        {
          "indexed": false,
          "internalType": "address",
          "name": "oldAddress",
          "type": "address"
        },
        {
          "indexed": false,
          "internalType": "address",
          "name": "newAddress",
          "type": "address"
        }
      ],
      "name": "RegistrarChange",
      "type": "event"
    },
    {
      "anonymous": false,
      "inputs": [
        {
          "indexed": true,
          "internalType": "address",
          "name": "from",
          "type": "address"
        },
        {
          "indexed": true,
          "internalType": "address",
          "name": "to",
          "type": "address"
        },
        {
          "indexed": false,
          "internalType": "uint256",
          "name": "value",
          "type": "uint256"
        }
      ],
      "name": "Transfer",
      "type": "event"
    },
    {
      "anonymous": false,
      "inputs": [
        {
          "indexed": true,
          "internalType": "address",
          "name": "provider",
          "type": "address"
        },
        {
          "indexed": false,
          "internalType": "uint256",
          "name": "amount",
          "type": "uint256"
        }
      ],
      "name": "TransferDeposits",
      "type": "event"
    },
    {
      "inputs": [
        {
          "internalType": "address",
          "name": "_provider",
          "type": "address"
        }
      ],
      "name": "addProvider",
      "outputs": [],
      "stateMutability": "nonpayable",
      "type": "function"
    },
    {
      "inputs": [
        {
          "internalType": "address",
          "name": "owner",
          "type": "address"
        },
        {
          "internalType": "address",
          "name": "spender",
          "type": "address"
        }
      ],
      "name": "allowance",
      "outputs": [
        {
          "internalType": "uint256",
          "name": "",
          "type": "uint256"
        }
      ],
      "stateMutability": "view",
      "type": "function"
    },
    {
      "inputs": [
        {
          "internalType": "address",
          "name": "spender",
          "type": "address"
        },
        {
          "internalType": "uint256",
          "name": "amount",
          "type": "uint256"
        }
      ],
      "name": "approve",
      "outputs": [
        {
          "internalType": "bool",
          "name": "",
          "type": "bool"
        }
      ],
      "stateMutability": "nonpayable",
      "type": "function"
    },
    {
      "inputs": [
        {
          "internalType": "address",
          "name": "account",
          "type": "address"
        }
      ],
      "name": "balanceOf",
      "outputs": [
        {
          "internalType": "uint256",
          "name": "",
          "type": "uint256"
        }
      ],
      "stateMutability": "view",
      "type": "function"
    },
    {
      "inputs": [
        {
          "internalType": "uint256",
          "name": "_minBuy",
          "type": "uint256"
        },
        {
          "internalType": "uint256",
          "name": "_maxBuy",
          "type": "uint256"
        }
      ],
      "name": "changeBuyLimits",
      "outputs": [],
      "stateMutability": "nonpayable",
      "type": "function"
    },
    {
      "inputs": [
        {
          "internalType": "address",
          "name": "_addr",
          "type": "address"
        }
      ],
      "name": "changeFallback",
      "outputs": [],
      "stateMutability": "nonpayable",
      "type": "function"
    },
    {
      "inputs": [
        {
          "internalType": "uint256",
          "name": "_fee",
          "type": "uint256"
        }
      ],
      "name": "changeFee",
      "outputs": [],
      "stateMutability": "nonpayable",
      "type": "function"
    },
    {
      "inputs": [
        {
          "internalType": "address",
          "name": "_addr",
          "type": "address"
        }
      ],
      "name": "changeRegistrar",
      "outputs": [],
      "stateMutability": "nonpayable",
      "type": "function"
    },
    {
      "inputs": [
        {
          "internalType": "bytes32[]",
          "name": "_proof",
          "type": "bytes32[]"
        },
        {
          "internalType": "uint256",
          "name": "_amount",
          "type": "uint256"
        }
      ],
      "name": "checkInWhitelist",
      "outputs": [
        {
          "internalType": "bool",
          "name": "",
          "type": "bool"
        }
      ],
      "stateMutability": "view",
      "type": "function"
    },
    {
      "inputs": [
        {
          "internalType": "bytes32[]",
          "name": "_proof",
          "type": "bytes32[]"
        },
        {
          "internalType": "uint256",
          "name": "_amount",
          "type": "uint256"
        }
      ],
      "name": "claimAirdrop",
      "outputs": [],
      "stateMutability": "nonpayable",
      "type": "function"
    },
    {
      "inputs": [],
      "name": "decimals",
      "outputs": [
        {
          "internalType": "uint8",
          "name": "",
          "type": "uint8"
        }
      ],
      "stateMutability": "view",
      "type": "function"
    },
    {
      "inputs": [
        {
          "internalType": "address",
          "name": "spender",
          "type": "address"
        },
        {
          "internalType": "uint256",
          "name": "subtractedValue",
          "type": "uint256"
        }
      ],
      "name": "decreaseAllowance",
      "outputs": [
        {
          "internalType": "bool",
          "name": "",
          "type": "bool"
        }
      ],
      "stateMutability": "nonpayable",
      "type": "function"
    },
    {
      "inputs": [],
      "name": "endPreSale",
      "outputs": [],
      "stateMutability": "nonpayable",
      "type": "function"
    },
    {
      "inputs": [
        {
          "internalType": "uint256",
          "name": "_amount",
          "type": "uint256"
        }
      ],
      "name": "fallbackWithdraw",
      "outputs": [],
      "stateMutability": "nonpayable",
      "type": "function"
    },
    {
      "inputs": [],
      "name": "getFallbacks",
      "outputs": [
        {
          "internalType": "uint256",
          "name": "",
          "type": "uint256"
        }
      ],
      "stateMutability": "view",
      "type": "function"
    },
    {
      "inputs": [],
      "name": "getFee",
      "outputs": [
        {
          "internalType": "uint256",
          "name": "",
          "type": "uint256"
        }
      ],
      "stateMutability": "view",
      "type": "function"
    },
    {
      "inputs": [],
      "name": "getPresaleDetails",
      "outputs": [
        {
          "components": [
            {
              "internalType": "uint256",
              "name": "saleCount",
              "type": "uint256"
            },
            {
              "internalType": "uint256",
              "name": "amountRaised",
              "type": "uint256"
            },
            {
              "internalType": "uint256",
              "name": "amountWithdrawable",
              "type": "uint256"
            },
            {
              "internalType": "uint256",
              "name": "tokensLeft",
              "type": "uint256"
            },
            {
              "internalType": "uint256",
              "name": "tokensSold",
              "type": "uint256"
            },
            {
              "internalType": "uint256",
              "name": "tokensPerBnb",
              "type": "uint256"
            }
          ],
          "internalType": "struct MySignalApp.presaleDetails",
          "name": "",
          "type": "tuple"
        }
      ],
      "stateMutability": "view",
      "type": "function"
    },
    {
      "inputs": [
        {
          "internalType": "address",
          "name": "_addr",
          "type": "address"
        }
      ],
      "name": "getProviderBalance",
      "outputs": [
        {
          "internalType": "uint256",
          "name": "",
          "type": "uint256"
        }
      ],
      "stateMutability": "view",
      "type": "function"
    },
    {
      "inputs": [
        {
          "internalType": "address",
          "name": "_addr",
          "type": "address"
        }
      ],
      "name": "getReferrerBalance",
      "outputs": [
        {
          "internalType": "uint256",
          "name": "",
          "type": "uint256"
        }
      ],
      "stateMutability": "view",
      "type": "function"
    },
    {
      "inputs": [],
      "name": "getRegistrarBalance",
      "outputs": [
        {
          "internalType": "uint256",
          "name": "",
          "type": "uint256"
        }
      ],
      "stateMutability": "view",
      "type": "function"
    },
    {
      "inputs": [],
      "name": "i_merkleRoot",
      "outputs": [
        {
          "internalType": "bytes32",
          "name": "",
          "type": "bytes32"
        }
      ],
      "stateMutability": "view",
      "type": "function"
    },
    {
      "inputs": [
        {
          "internalType": "address",
          "name": "spender",
          "type": "address"
        },
        {
          "internalType": "uint256",
          "name": "addedValue",
          "type": "uint256"
        }
      ],
      "name": "increaseAllowance",
      "outputs": [
        {
          "internalType": "bool",
          "name": "",
          "type": "bool"
        }
      ],
      "stateMutability": "nonpayable",
      "type": "function"
    },
    {
      "inputs": [
        {
          "internalType": "uint256",
          "name": "totalSupply",
          "type": "uint256"
        },
        {
          "internalType": "uint256",
          "name": "preSaleAmount",
          "type": "uint256"
        },
        {
          "internalType": "uint256",
          "name": "tokensPerBnb",
          "type": "uint256"
        }
      ],
      "name": "initialize",
      "outputs": [],
      "stateMutability": "nonpayable",
      "type": "function"
    },
    {
      "inputs": [
        {
          "internalType": "address",
          "name": "_addr",
          "type": "address"
        }
      ],
      "name": "isValidProvider",
      "outputs": [
        {
          "internalType": "bool",
          "name": "",
          "type": "bool"
        }
      ],
      "stateMutability": "view",
      "type": "function"
    },
    {
      "inputs": [],
      "name": "name",
      "outputs": [
        {
          "internalType": "string",
          "name": "",
          "type": "string"
        }
      ],
      "stateMutability": "view",
      "type": "function"
    },
    {
      "inputs": [
        {
          "internalType": "address",
          "name": "_provider",
          "type": "address"
        },
        {
          "internalType": "address",
          "name": "_referrer",
          "type": "address"
        },
        {
          "internalType": "uint256",
          "name": "_signalId",
          "type": "uint256"
        },
        {
          "internalType": "string",
          "name": "_userId",
          "type": "string"
        }
      ],
      "name": "payProvider",
      "outputs": [],
      "stateMutability": "nonpayable",
      "type": "function"
    },
    {
      "inputs": [
        {
          "internalType": "address",
          "name": "_newAddr",
          "type": "address"
        }
      ],
      "name": "providerChangeAddress",
      "outputs": [],
      "stateMutability": "nonpayable",
      "type": "function"
    },
    {
      "inputs": [
        {
          "internalType": "uint256",
          "name": "_amount",
          "type": "uint256"
        }
      ],
      "name": "providerWithdraw",
      "outputs": [],
      "stateMutability": "nonpayable",
      "type": "function"
    },
    {
      "inputs": [],
      "name": "referrerWithdraw",
      "outputs": [],
      "stateMutability": "nonpayable",
      "type": "function"
    },
    {
      "inputs": [
        {
          "internalType": "uint256",
          "name": "_amount",
          "type": "uint256"
        }
      ],
      "name": "registrarWithdraw",
      "outputs": [],
      "stateMutability": "nonpayable",
      "type": "function"
    },
    {
      "inputs": [],
      "name": "s_airdropBalance",
      "outputs": [
        {
          "internalType": "uint256",
          "name": "",
          "type": "uint256"
        }
      ],
      "stateMutability": "view",
      "type": "function"
    },
    {
      "inputs": [],
      "name": "s_isInitialized",
      "outputs": [
        {
          "internalType": "bool",
          "name": "",
          "type": "bool"
        }
      ],
      "stateMutability": "view",
      "type": "function"
    },
    {
      "inputs": [],
      "name": "s_isPresale",
      "outputs": [
        {
          "internalType": "bool",
          "name": "",
          "type": "bool"
        }
      ],
      "stateMutability": "view",
      "type": "function"
    },
    {
      "inputs": [],
      "name": "s_maxBuy",
      "outputs": [
        {
          "internalType": "uint256",
          "name": "",
          "type": "uint256"
        }
      ],
      "stateMutability": "view",
      "type": "function"
    },
    {
      "inputs": [],
      "name": "s_minBuy",
      "outputs": [
        {
          "internalType": "uint256",
          "name": "",
          "type": "uint256"
        }
      ],
      "stateMutability": "view",
      "type": "function"
    },
    {
      "inputs": [],
      "name": "s_tokensPerBnb",
      "outputs": [
        {
          "internalType": "uint256",
          "name": "",
          "type": "uint256"
        }
      ],
      "stateMutability": "view",
      "type": "function"
    },
    {
      "inputs": [],
      "name": "symbol",
      "outputs": [
        {
          "internalType": "string",
          "name": "",
          "type": "string"
        }
      ],
      "stateMutability": "view",
      "type": "function"
    },
    {
      "inputs": [],
      "name": "totalSupply",
      "outputs": [
        {
          "internalType": "uint256",
          "name": "",
          "type": "uint256"
        }
      ],
      "stateMutability": "view",
      "type": "function"
    },
    {
      "inputs": [
        {
          "internalType": "address",
          "name": "to",
          "type": "address"
        },
        {
          "internalType": "uint256",
          "name": "amount",
          "type": "uint256"
        }
      ],
      "name": "transfer",
      "outputs": [
        {
          "internalType": "bool",
          "name": "",
          "type": "bool"
        }
      ],
      "stateMutability": "nonpayable",
      "type": "function"
    },
    {
      "inputs": [
        {
          "internalType": "address",
          "name": "from",
          "type": "address"
        },
        {
          "internalType": "address",
          "name": "to",
          "type": "address"
        },
        {
          "internalType": "uint256",
          "name": "amount",
          "type": "uint256"
        }
      ],
      "name": "transferFrom",
      "outputs": [
        {
          "internalType": "bool",
          "name": "",
          "type": "bool"
        }
      ],
      "stateMutability": "nonpayable",
      "type": "function"
    },
    {
      "inputs": [],
      "name": "withdrawPreSale",
      "outputs": [],
      "stateMutability": "nonpayable",
      "type": "function"
    },
    {
      "stateMutability": "payable",
      "type": "receive"
    }
  ],
  "transactionHash": "0x450e257b4856cd2c1b9ca2c57215337c8538f10b08439713fb078666778f5c69",
  "args": [
    "0x2D3780568E72EE39137b4D5b49f585fe559410Dc",
    "0x2D3780568E72EE39137b4D5b49f585fe559410Dc",
    "100000000000000000",
    "0xb2d5df9614337eb7878b053e8976841b4312f8a40bf101799a3fceb05b8fbb6f",
    "6475215000000000000000000"
  ],
  "numDeployments": 4,
  "solcInputHash": "c0e5e6aa2b7411b460a8de585fb8de67",
  "bytecode": "0x60a060405267016345785d8a0000600955670de0b6b3a7640000600a553480156200002957600080fd5b5060405162002e1f38038062002e1f8339810160408190526200004c9162000209565b6040518060400160405280600d81526020016c29b4b3b730b639902a37b5b2b760991b815250604051806040016040528060038152602001622c29a760e91b81525081600390816200009f919062000300565b506004620000ae828262000300565b5050601180546001600160a01b03199081166001600160a01b038981169182179093556000908152601360205260409020805460ff19166001179055601280549091169187169190911790555060058190556007839055608082905262000116308262000121565b5050505050620003f4565b6001600160a01b0382166200017c5760405162461bcd60e51b815260206004820152601f60248201527f45524332303a206d696e7420746f20746865207a65726f206164647265737300604482015260640160405180910390fd5b8060026000828254620001909190620003cc565b90915550506001600160a01b038216600081815260208181526040808320805486019055518481527fddf252ad1be2c89b69c2b068fc378daa952ba7f163c4a11628f55a4df523b3ef910160405180910390a35050565b505050565b80516001600160a01b03811681146200020457600080fd5b919050565b600080600080600060a086880312156200022257600080fd5b6200022d86620001ec565b94506200023d60208701620001ec565b6040870151606088015160809098015196999198509695945092505050565b634e487b7160e01b600052604160045260246000fd5b600181811c908216806200028757607f821691505b602082108103620002a857634e487b7160e01b600052602260045260246000fd5b50919050565b601f821115620001e757600081815260208120601f850160051c81016020861015620002d75750805b601f850160051c820191505b81811015620002f857828155600101620002e3565b505050505050565b81516001600160401b038111156200031c576200031c6200025c565b62000334816200032d845462000272565b84620002ae565b602080601f8311600181146200036c5760008415620003535750858301515b600019600386901b1c1916600185901b178555620002f8565b600085815260208120601f198616915b828110156200039d578886015182559484019460019091019084016200037c565b5085821015620003bc5787850151600019600388901b60f8161c191681555b5050505050600190811b01905550565b80820180821115620003ee57634e487b7160e01b600052601160045260246000fd5b92915050565b608051612a0862000417600039600081816109e20152610e1f0152612a086000f3fe6080604052600436106102ca5760003560e01c8063576cf667116101795780639e2176f9116100d6578063b2bbefdb1161008a578063db7f967911610064578063db7f967914610a19578063dd62ed3e14610a2e578063ee889ed014610a8157600080fd5b8063b2bbefdb1461098a578063c73b959b146109d0578063ced72f8714610a0457600080fd5b8063a89e6edd116100bb578063a89e6edd14610911578063a9059cbb14610927578063abc3bc921461094757600080fd5b80639e2176f9146108d1578063a457c2d7146108f157600080fd5b806380d859111161012d5780638a3def65116101125780638a3def651461088757806395d89b41146108a75780639b2f9842146108bc57600080fd5b806380d8591114610824578063832eea0c1461084457600080fd5b80636fb1338b1161015e5780636fb1338b1461078e57806370a08231146107c157806376b588101461080457600080fd5b8063576cf6671461074e5780636a1db1bf1461076e57600080fd5b80632e41b5901161022757806333fd7b07116101db57806339509351116101c057806339509351146106ad57806346e2577a146106cd5780634729376b146106ed57600080fd5b806333fd7b07146106665780633921c41d1461067b57600080fd5b8063313ce5671161020c578063313ce5671461060a5780633272b7b7146106265780633335252b1461064657600080fd5b80632e41b590146105d45780632ee7e4a6146105f457600080fd5b80631d7f80ae1161027e57806325d638e51161026357806325d638e51461058b57806325fe7b7f1461059e5780632b96942b146105b457600080fd5b80631d7f80ae1461054b57806323b872dd1461056b57600080fd5b806318160ddd116102af57806318160ddd146104f6578063183473f41461051557806319a542971461053557600080fd5b806306fdde031461049b578063095ea7b3146104c657600080fd5b366104965760125474010000000000000000000000000000000000000000900460ff166102f357005b6009543410806103045750600a5434115b806103205750600a543360009081526017602052604090205410155b15610357576040517f7c515e3e00000000000000000000000000000000000000000000000000000000815260040160405180910390fd5b6000600854346103679190612586565b905080600b6003015410156103a8576040517fec52c3c600000000000000000000000000000000000000000000000000000000815260040160405180910390fd5b34600b60010160008282546103bd919061259d565b9091555050600d80543491906000906103d790849061259d565b9091555050600b80549060006103ec836125b0565b919050555080600b600301600082825461040691906125e8565b9091555050600f805482919060009061042090849061259d565b9091555050336000908152601760205260408120805434929061044490849061259d565b9091555050604080513381523460208201529081018290527fcefc009576cd0af550258c26c1d32581f56d12a2396adcdb3c064c3de21880959060600160405180910390a1610494303383610a96565b005b600080fd5b3480156104a757600080fd5b506104b0610d0c565b6040516104bd91906125fb565b60405180910390f35b3480156104d257600080fd5b506104e66104e1366004612690565b610d9e565b60405190151581526020016104bd565b34801561050257600080fd5b506002545b6040519081526020016104bd565b34801561052157600080fd5b506104e66105303660046126ba565b610db8565b34801561054157600080fd5b5061050760095481565b34801561055757600080fd5b50610494610566366004612735565b610e54565b34801561057757600080fd5b506104e6610586366004612750565b610f6c565b34801561059757600080fd5b5047610507565b3480156105aa57600080fd5b5061050760055481565b3480156105c057600080fd5b506104946105cf36600461278c565b610f90565b3480156105e057600080fd5b506104946105ef3660046127a5565b61110f565b34801561060057600080fd5b50610507600a5481565b34801561061657600080fd5b50604051601281526020016104bd565b34801561063257600080fd5b50610494610641366004612840565b6113c8565b34801561065257600080fd5b506104946106613660046126ba565b611447565b34801561067257600080fd5b5061049461156a565b34801561068757600080fd5b506012546104e69074010000000000000000000000000000000000000000900460ff1681565b3480156106b957600080fd5b506104e66106c8366004612690565b61158e565b3480156106d957600080fd5b506104946106e8366004612735565b6115da565b3480156106f957600080fd5b506107026116fd565b6040516104bd9190600060c082019050825182526020830151602083015260408301516040830152606083015160608301526080830151608083015260a083015160a083015292915050565b34801561075a57600080fd5b50610494610769366004612735565b611773565b34801561077a57600080fd5b5061049461078936600461278c565b611890565b34801561079a57600080fd5b506012546104e6907501000000000000000000000000000000000000000000900460ff1681565b3480156107cd57600080fd5b506105076107dc366004612735565b73ffffffffffffffffffffffffffffffffffffffff1660009081526020819052604090205490565b34801561081057600080fd5b5061049461081f366004612735565b61191f565b34801561083057600080fd5b5061049461083f366004612862565b611a3c565b34801561085057600080fd5b5061050761085f366004612735565b73ffffffffffffffffffffffffffffffffffffffff1660009081526014602052604090205490565b34801561089357600080fd5b506104946108a236600461278c565b611ba4565b3480156108b357600080fd5b506104b0611c54565b3480156108c857600080fd5b50600654610507565b3480156108dd57600080fd5b506104946108ec36600461278c565b611c63565b3480156108fd57600080fd5b506104e661090c366004612690565b611d5d565b34801561091d57600080fd5b5061050760085481565b34801561093357600080fd5b506104e6610942366004612690565b611e2e565b34801561095357600080fd5b50610507610962366004612735565b73ffffffffffffffffffffffffffffffffffffffff1660009081526015602052604090205490565b34801561099657600080fd5b506104e66109a5366004612735565b73ffffffffffffffffffffffffffffffffffffffff1660009081526013602052604090205460ff1690565b3480156109dc57600080fd5b506105077f000000000000000000000000000000000000000000000000000000000000000081565b348015610a1057600080fd5b50600754610507565b348015610a2557600080fd5b50610494611e3c565b348015610a3a57600080fd5b50610507610a4936600461288e565b73ffffffffffffffffffffffffffffffffffffffff918216600090815260016020908152604080832093909416825291909152205490565b348015610a8d57600080fd5b50610494611efb565b73ffffffffffffffffffffffffffffffffffffffff8316610b3e576040517f08c379a000000000000000000000000000000000000000000000000000000000815260206004820152602560248201527f45524332303a207472616e736665722066726f6d20746865207a65726f20616460448201527f647265737300000000000000000000000000000000000000000000000000000060648201526084015b60405180910390fd5b73ffffffffffffffffffffffffffffffffffffffff8216610be1576040517f08c379a000000000000000000000000000000000000000000000000000000000815260206004820152602360248201527f45524332303a207472616e7366657220746f20746865207a65726f206164647260448201527f65737300000000000000000000000000000000000000000000000000000000006064820152608401610b35565b73ffffffffffffffffffffffffffffffffffffffff831660009081526020819052604090205481811015610c97576040517f08c379a000000000000000000000000000000000000000000000000000000000815260206004820152602660248201527f45524332303a207472616e7366657220616d6f756e742065786365656473206260448201527f616c616e636500000000000000000000000000000000000000000000000000006064820152608401610b35565b73ffffffffffffffffffffffffffffffffffffffff848116600081815260208181526040808320878703905593871680835291849020805487019055925185815290927fddf252ad1be2c89b69c2b068fc378daa952ba7f163c4a11628f55a4df523b3ef910160405180910390a35b50505050565b606060038054610d1b906128c1565b80601f0160208091040260200160405190810160405280929190818152602001828054610d47906128c1565b8015610d945780601f10610d6957610100808354040283529160200191610d94565b820191906000526020600020905b815481529060010190602001808311610d7757829003601f168201915b5050505050905090565b600033610dac818585611f87565b60019150505b92915050565b6040805133602082015290810182905260009081906060016040516020818303038152906040528051906020012090506000610e4a8686808060200260200160405190810160405280939291908181526020018383602002808284376000920191909152507f0000000000000000000000000000000000000000000000000000000000000000925086915061213a9050565b9695505050505050565b3360009081526013602052604090205460ff16610e9d576040517fa41eb8c200000000000000000000000000000000000000000000000000000000815260040160405180910390fd5b336000818152601460209081526040808320805490849055601390925280832080547fffffffffffffffffffffffffffffffffffffffffffffffffffffffffffffff0090811690915573ffffffffffffffffffffffffffffffffffffffff861684529220805490921660011790915590610f1990309083610a96565b6040805133815273ffffffffffffffffffffffffffffffffffffffff841660208201527f5bbda34f4283e006dc680407c75f3f17c43d2869c203923c1331d3800398a71b91015b60405180910390a15050565b600033610f7a858285612150565b610f85858585610a96565b506001949350505050565b60125474010000000000000000000000000000000000000000900460ff1615610fe5576040517f3b9556f800000000000000000000000000000000000000000000000000000000815260040160405180910390fd5b60125473ffffffffffffffffffffffffffffffffffffffff163314611036576040517f824f28fa00000000000000000000000000000000000000000000000000000000815260040160405180910390fd5b47811115611070576040517f882b286b00000000000000000000000000000000000000000000000000000000815260040160405180910390fd5b60003373ffffffffffffffffffffffffffffffffffffffff16826040515b60006040518083038185875af1925050503d80600081146110cb576040519150601f19603f3d011682016040523d82523d6000602084013e6110d0565b606091505b505090508061110b576040517f1f2f4bab00000000000000000000000000000000000000000000000000000000815260040160405180910390fd5b5050565b73ffffffffffffffffffffffffffffffffffffffff851660009081526013602052604090205460ff1661116e576040517fa41eb8c200000000000000000000000000000000000000000000000000000000815260040160405180910390fd5b60075460006064611180836032612586565b61118a9190612914565b905073ffffffffffffffffffffffffffffffffffffffff8616156112ed57600060646111b784601e612586565b6111c19190612914565b9050600060646111d2856014612586565b6111dc9190612914565b73ffffffffffffffffffffffffffffffffffffffff8a1660009081526014602052604081208054929350859290919061121690849061259d565b909155505073ffffffffffffffffffffffffffffffffffffffff88166000908152601560205260408120805483929061125090849061259d565b925050819055508160066000828254611269919061259d565b9091555061127a9050333086610a96565b868873ffffffffffffffffffffffffffffffffffffffff168a73ffffffffffffffffffffffffffffffffffffffff167f8796fed90e2848cb224d49106d22a29aa40c22c1a2b21acd42d9bce9423713e2868a8a6040516112dc9392919061294f565b60405180910390a4505050506113c1565b73ffffffffffffffffffffffffffffffffffffffff87166000908152601460205260408120805483929061132290849061259d565b90915550611332905081836125e8565b60066000828254611343919061259d565b909155506113549050333084610a96565b848673ffffffffffffffffffffffffffffffffffffffff168873ffffffffffffffffffffffffffffffffffffffff167f8796fed90e2848cb224d49106d22a29aa40c22c1a2b21acd42d9bce9423713e28488886040516113b69392919061294f565b60405180910390a450505b5050505050565b60115473ffffffffffffffffffffffffffffffffffffffff163314611419576040517fece6d48800000000000000000000000000000000000000000000000000000000815260040160405180910390fd5b60125474010000000000000000000000000000000000000000900460ff161561110b57600991909155600a55565b3360009081526016602052604090205460ff1615611491576040517f68ac8e6900000000000000000000000000000000000000000000000000000000815260040160405180910390fd5b61149c838383610db8565b6114d2576040517f1845a60f00000000000000000000000000000000000000000000000000000000815260040160405180910390fd5b33600090815260166020526040812080547fffffffffffffffffffffffffffffffffffffffffffffffffffffffffffffff001660011790556005805483929061151c9084906125e8565b909155505060408051338152602081018390527f650e45f04ef8a0c267b2f78d983913f69ae3a353b2b32de5429307522be0ab55910160405180910390a1611565303383610a96565b505050565b33600081815260156020526040812080549190559061158b90309083610a96565b50565b33600081815260016020908152604080832073ffffffffffffffffffffffffffffffffffffffff87168452909152812054909190610dac90829086906115d590879061259d565b611f87565b60115473ffffffffffffffffffffffffffffffffffffffff16331461162b576040517fece6d48800000000000000000000000000000000000000000000000000000000815260040160405180910390fd5b73ffffffffffffffffffffffffffffffffffffffff8116611678576040517f247e2d4a00000000000000000000000000000000000000000000000000000000815260040160405180910390fd5b73ffffffffffffffffffffffffffffffffffffffff811660008181526013602090815260409182902080547fffffffffffffffffffffffffffffffffffffffffffffffffffffffffffffff0016600117905590519182527fae9c2c6481964847714ce58f65a7f6dcc41d0d8394449bacdf161b5920c4744a910160405180910390a150565b6117366040518060c001604052806000815260200160008152602001600081526020016000815260200160008152602001600081525090565b506040805160c081018252600b548152600c546020820152600d5491810191909152600e546060820152600f54608082015260105460a082015290565b60125473ffffffffffffffffffffffffffffffffffffffff1633146117c4576040517f824f28fa00000000000000000000000000000000000000000000000000000000815260040160405180910390fd5b73ffffffffffffffffffffffffffffffffffffffff8116611811576040517f247e2d4a00000000000000000000000000000000000000000000000000000000815260040160405180910390fd5b6012805473ffffffffffffffffffffffffffffffffffffffff8381167fffffffffffffffffffffffff000000000000000000000000000000000000000083168117909355604080519190921680825260208201939093527f9cfd98ce2b0572a77cf9d71bacef7955c853a989204db1ce37fbee74f280d35b9101610f60565b60115473ffffffffffffffffffffffffffffffffffffffff1633146118e1576040517fece6d48800000000000000000000000000000000000000000000000000000000815260040160405180910390fd5b600780549082905560408051828152602081018490527fa995ac7c2dc5fdc05b41983e69d4d9fbd224a8528bc7d86eabfd533cd3ca44979101610f60565b60115473ffffffffffffffffffffffffffffffffffffffff163314611970576040517fece6d48800000000000000000000000000000000000000000000000000000000815260040160405180910390fd5b73ffffffffffffffffffffffffffffffffffffffff81166119bd576040517f247e2d4a00000000000000000000000000000000000000000000000000000000815260040160405180910390fd5b6011805473ffffffffffffffffffffffffffffffffffffffff8381167fffffffffffffffffffffffff000000000000000000000000000000000000000083168117909355604080519190921680825260208201939093527faa91ef4e7d0a22f1b92d0eb50b6e60b1034e11c61318a81e150143d5715ebb399101610f60565b60115473ffffffffffffffffffffffffffffffffffffffff163314611a8d576040517fece6d48800000000000000000000000000000000000000000000000000000000815260040160405180910390fd5b6012547501000000000000000000000000000000000000000000900460ff1615611ae3576040517f8657fcf000000000000000000000000000000000000000000000000000000000815260040160405180910390fd5b601280547fffffffffffffffffffff0000ffffffffffffffffffffffffffffffffffffffff167501010000000000000000000000000000000000000000179055600554600090611b3384866125e8565b611b3d91906125e8565b6040805160c081018252600080825260208201819052918101829052606081018690526080810182905260a001849052600b819055600c819055600d819055600e859055600f55601083905560088390559050611b9a3382612221565b610d063084612221565b60115473ffffffffffffffffffffffffffffffffffffffff163314611bf5576040517fece6d48800000000000000000000000000000000000000000000000000000000815260040160405180910390fd5b600654811115611c31576040517f882b286b00000000000000000000000000000000000000000000000000000000815260040160405180910390fd5b8060066000828254611c4391906125e8565b9091555061158b9050303383610a96565b606060048054610d1b906128c1565b3360009081526013602052604090205460ff16611cac576040517fa41eb8c200000000000000000000000000000000000000000000000000000000815260040160405180910390fd5b33600090815260146020526040902054811115611cf5576040517f882b286b00000000000000000000000000000000000000000000000000000000815260040160405180910390fd5b3360009081526014602052604081208054839290611d149084906125e8565b90915550611d259050303383610a96565b60405181815233907f12e802b6ed6e970b958406df898001b6336cab376c17f335ea72d122ecdf3c2d9060200160405180910390a250565b33600081815260016020908152604080832073ffffffffffffffffffffffffffffffffffffffff8716845290915281205490919083811015611e21576040517f08c379a000000000000000000000000000000000000000000000000000000000815260206004820152602560248201527f45524332303a2064656372656173656420616c6c6f77616e63652062656c6f7760448201527f207a65726f0000000000000000000000000000000000000000000000000000006064820152608401610b35565b610f858286868403611f87565b600033610dac818585610a96565b60115473ffffffffffffffffffffffffffffffffffffffff163314611e8d576040517fece6d48800000000000000000000000000000000000000000000000000000000815260040160405180910390fd5b60125474010000000000000000000000000000000000000000900460ff1615611ee2576040517f3b9556f800000000000000000000000000000000000000000000000000000000815260040160405180910390fd5b600d80546000918290556040519091903390839061108e565b60115473ffffffffffffffffffffffffffffffffffffffff163314611f4c576040517fece6d48800000000000000000000000000000000000000000000000000000000815260040160405180910390fd5b601280547fffffffffffffffffffffff00ffffffffffffffffffffffffffffffffffffffff169055600e8054600090915561158b3082612314565b73ffffffffffffffffffffffffffffffffffffffff8316612029576040517f08c379a0000000000000000000000000000000000000000000000000000000008152602060048201526024808201527f45524332303a20617070726f76652066726f6d20746865207a65726f2061646460448201527f72657373000000000000000000000000000000000000000000000000000000006064820152608401610b35565b73ffffffffffffffffffffffffffffffffffffffff82166120cc576040517f08c379a000000000000000000000000000000000000000000000000000000000815260206004820152602260248201527f45524332303a20617070726f766520746f20746865207a65726f20616464726560448201527f73730000000000000000000000000000000000000000000000000000000000006064820152608401610b35565b73ffffffffffffffffffffffffffffffffffffffff83811660008181526001602090815260408083209487168084529482529182902085905590518481527f8c5be1e5ebec7d5bd14f71427d1e84f3dd0314c0f7b2291e5b200ac8c7c3b925910160405180910390a3505050565b60008261214785846124d8565b14949350505050565b73ffffffffffffffffffffffffffffffffffffffff8381166000908152600160209081526040808320938616835292905220547fffffffffffffffffffffffffffffffffffffffffffffffffffffffffffffffff8114610d065781811015612214576040517f08c379a000000000000000000000000000000000000000000000000000000000815260206004820152601d60248201527f45524332303a20696e73756666696369656e7420616c6c6f77616e63650000006044820152606401610b35565b610d068484848403611f87565b73ffffffffffffffffffffffffffffffffffffffff821661229e576040517f08c379a000000000000000000000000000000000000000000000000000000000815260206004820152601f60248201527f45524332303a206d696e7420746f20746865207a65726f2061646472657373006044820152606401610b35565b80600260008282546122b0919061259d565b909155505073ffffffffffffffffffffffffffffffffffffffff8216600081815260208181526040808320805486019055518481527fddf252ad1be2c89b69c2b068fc378daa952ba7f163c4a11628f55a4df523b3ef910160405180910390a35050565b73ffffffffffffffffffffffffffffffffffffffff82166123b7576040517f08c379a000000000000000000000000000000000000000000000000000000000815260206004820152602160248201527f45524332303a206275726e2066726f6d20746865207a65726f2061646472657360448201527f73000000000000000000000000000000000000000000000000000000000000006064820152608401610b35565b73ffffffffffffffffffffffffffffffffffffffff82166000908152602081905260409020548181101561246d576040517f08c379a000000000000000000000000000000000000000000000000000000000815260206004820152602260248201527f45524332303a206275726e20616d6f756e7420657863656564732062616c616e60448201527f63650000000000000000000000000000000000000000000000000000000000006064820152608401610b35565b73ffffffffffffffffffffffffffffffffffffffff83166000818152602081815260408083208686039055600280548790039055518581529192917fddf252ad1be2c89b69c2b068fc378daa952ba7f163c4a11628f55a4df523b3ef910160405180910390a3505050565b600081815b845181101561251d57612509828683815181106124fc576124fc6129a3565b6020026020010151612525565b915080612515816125b0565b9150506124dd565b509392505050565b6000818310612541576000828152602084905260409020612550565b60008381526020839052604090205b9392505050565b7f4e487b7100000000000000000000000000000000000000000000000000000000600052601160045260246000fd5b8082028115828204841417610db257610db2612557565b80820180821115610db257610db2612557565b60007fffffffffffffffffffffffffffffffffffffffffffffffffffffffffffffffff82036125e1576125e1612557565b5060010190565b81810381811115610db257610db2612557565b600060208083528351808285015260005b818110156126285785810183015185820160400152820161260c565b5060006040828601015260407fffffffffffffffffffffffffffffffffffffffffffffffffffffffffffffffe0601f8301168501019250505092915050565b803573ffffffffffffffffffffffffffffffffffffffff8116811461268b57600080fd5b919050565b600080604083850312156126a357600080fd5b6126ac83612667565b946020939093013593505050565b6000806000604084860312156126cf57600080fd5b833567ffffffffffffffff808211156126e757600080fd5b818601915086601f8301126126fb57600080fd5b81358181111561270a57600080fd5b8760208260051b850101111561271f57600080fd5b6020928301989097509590910135949350505050565b60006020828403121561274757600080fd5b61255082612667565b60008060006060848603121561276557600080fd5b61276e84612667565b925061277c60208501612667565b9150604084013590509250925092565b60006020828403121561279e57600080fd5b5035919050565b6000806000806000608086880312156127bd57600080fd5b6127c686612667565b94506127d460208701612667565b935060408601359250606086013567ffffffffffffffff808211156127f857600080fd5b818801915088601f83011261280c57600080fd5b81358181111561281b57600080fd5b89602082850101111561282d57600080fd5b9699959850939650602001949392505050565b6000806040838503121561285357600080fd5b50508035926020909101359150565b60008060006060848603121561287757600080fd5b505081359360208301359350604090920135919050565b600080604083850312156128a157600080fd5b6128aa83612667565b91506128b860208401612667565b90509250929050565b600181811c908216806128d557607f821691505b60208210810361290e577f4e487b7100000000000000000000000000000000000000000000000000000000600052602260045260246000fd5b50919050565b60008261294a577f4e487b7100000000000000000000000000000000000000000000000000000000600052601260045260246000fd5b500490565b83815260406020820152816040820152818360608301376000818301606090810191909152601f9092017fffffffffffffffffffffffffffffffffffffffffffffffffffffffffffffffe016010192915050565b7f4e487b7100000000000000000000000000000000000000000000000000000000600052603260045260246000fdfea264697066735822122065ddc2dde63901f3d617832592c95bde1945361e7171e47e69390092a93fbf2464736f6c63430008120033",
  "devdoc": {
    "events": {
      "Approval(address,address,uint256)": {
        "details": "Emitted when the allowance of a `spender` for an `owner` is set by a call to {approve}. `value` is the new allowance."
      },
      "Transfer(address,address,uint256)": {
        "details": "Emitted when `value` tokens are moved from one account (`from`) to another (`to`). Note that `value` may be zero."
      }
    },
    "kind": "dev",
    "methods": {
      "allowance(address,address)": {
        "details": "See {IERC20-allowance}."
      },
      "approve(address,uint256)": {
        "details": "See {IERC20-approve}. NOTE: If `amount` is the maximum `uint256`, the allowance is not updated on `transferFrom`. This is semantically equivalent to an infinite approval. Requirements: - `spender` cannot be the zero address."
      },
      "balanceOf(address)": {
        "details": "See {IERC20-balanceOf}."
      },
      "decimals()": {
        "details": "Returns the number of decimals used to get its user representation. For example, if `decimals` equals `2`, a balance of `505` tokens should be displayed to a user as `5.05` (`505 / 10 ** 2`). Tokens usually opt for a value of 18, imitating the relationship between Ether and Wei. This is the value {ERC20} uses, unless this function is overridden; NOTE: This information is only used for _display_ purposes: it in no way affects any of the arithmetic of the contract, including {IERC20-balanceOf} and {IERC20-transfer}."
      },
      "decreaseAllowance(address,uint256)": {
        "details": "Atomically decreases the allowance granted to `spender` by the caller. This is an alternative to {approve} that can be used as a mitigation for problems described in {IERC20-approve}. Emits an {Approval} event indicating the updated allowance. Requirements: - `spender` cannot be the zero address. - `spender` must have allowance for the caller of at least `subtractedValue`."
      },
      "increaseAllowance(address,uint256)": {
        "details": "Atomically increases the allowance granted to `spender` by the caller. This is an alternative to {approve} that can be used as a mitigation for problems described in {IERC20-approve}. Emits an {Approval} event indicating the updated allowance. Requirements: - `spender` cannot be the zero address."
      },
      "name()": {
        "details": "Returns the name of the token."
      },
      "symbol()": {
        "details": "Returns the symbol of the token, usually a shorter version of the name."
      },
      "totalSupply()": {
        "details": "See {IERC20-totalSupply}."
      },
      "transfer(address,uint256)": {
        "details": "See {IERC20-transfer}. Requirements: - `to` cannot be the zero address. - the caller must have a balance of at least `amount`."
      },
      "transferFrom(address,address,uint256)": {
        "details": "See {IERC20-transferFrom}. Emits an {Approval} event indicating the updated allowance. This is not required by the EIP. See the note at the beginning of {ERC20}. NOTE: Does not update the allowance if the current allowance is the maximum `uint256`. Requirements: - `from` and `to` cannot be the zero address. - `from` must have a balance of at least `amount`. - the caller must have allowance for ``from``'s tokens of at least `amount`."
      }
    },
    "version": 1
  },
  "userdoc": {
    "kind": "user",
    "methods": {},
    "version": 1
  },
  "storageLayout": {
    "storage": [
      {
        "astId": 15,
        "contract": "contracts/MySignalApp.sol:MySignalApp",
        "label": "_balances",
        "offset": 0,
        "slot": "0",
        "type": "t_mapping(t_address,t_uint256)"
      },
      {
        "astId": 21,
        "contract": "contracts/MySignalApp.sol:MySignalApp",
        "label": "_allowances",
        "offset": 0,
        "slot": "1",
        "type": "t_mapping(t_address,t_mapping(t_address,t_uint256))"
      },
      {
        "astId": 23,
        "contract": "contracts/MySignalApp.sol:MySignalApp",
        "label": "_totalSupply",
        "offset": 0,
        "slot": "2",
        "type": "t_uint256"
      },
      {
        "astId": 25,
        "contract": "contracts/MySignalApp.sol:MySignalApp",
        "label": "_name",
        "offset": 0,
        "slot": "3",
        "type": "t_string_storage"
      },
      {
        "astId": 27,
        "contract": "contracts/MySignalApp.sol:MySignalApp",
        "label": "_symbol",
        "offset": 0,
        "slot": "4",
        "type": "t_string_storage"
      },
      {
        "astId": 1249,
        "contract": "contracts/MySignalApp.sol:MySignalApp",
        "label": "s_airdropBalance",
        "offset": 0,
        "slot": "5",
        "type": "t_uint256"
      },
      {
        "astId": 1251,
        "contract": "contracts/MySignalApp.sol:MySignalApp",
        "label": "s_registrarBalance",
        "offset": 0,
        "slot": "6",
        "type": "t_uint256"
      },
      {
        "astId": 1253,
        "contract": "contracts/MySignalApp.sol:MySignalApp",
        "label": "s_fees",
        "offset": 0,
        "slot": "7",
        "type": "t_uint256"
      },
      {
        "astId": 1255,
        "contract": "contracts/MySignalApp.sol:MySignalApp",
        "label": "s_tokensPerBnb",
        "offset": 0,
        "slot": "8",
        "type": "t_uint256"
      },
      {
        "astId": 1258,
        "contract": "contracts/MySignalApp.sol:MySignalApp",
        "label": "s_minBuy",
        "offset": 0,
        "slot": "9",
        "type": "t_uint256"
      },
      {
        "astId": 1261,
        "contract": "contracts/MySignalApp.sol:MySignalApp",
        "label": "s_maxBuy",
        "offset": 0,
        "slot": "10",
        "type": "t_uint256"
      },
      {
        "astId": 1277,
        "contract": "contracts/MySignalApp.sol:MySignalApp",
        "label": "s_preSaleDetails",
        "offset": 0,
        "slot": "11",
        "type": "t_struct(presaleDetails)1274_storage"
      },
      {
        "astId": 1281,
        "contract": "contracts/MySignalApp.sol:MySignalApp",
        "label": "s_registrar",
        "offset": 0,
        "slot": "17",
        "type": "t_address"
      },
      {
        "astId": 1283,
        "contract": "contracts/MySignalApp.sol:MySignalApp",
        "label": "s_fallbackAddress",
        "offset": 0,
        "slot": "18",
        "type": "t_address"
      },
      {
        "astId": 1285,
        "contract": "contracts/MySignalApp.sol:MySignalApp",
        "label": "s_isPresale",
        "offset": 20,
        "slot": "18",
        "type": "t_bool"
      },
      {
        "astId": 1287,
        "contract": "contracts/MySignalApp.sol:MySignalApp",
        "label": "s_isInitialized",
        "offset": 21,
        "slot": "18",
        "type": "t_bool"
      },
      {
        "astId": 1291,
        "contract": "contracts/MySignalApp.sol:MySignalApp",
        "label": "s_validProvider",
        "offset": 0,
        "slot": "19",
        "type": "t_mapping(t_address,t_bool)"
      },
      {
        "astId": 1295,
        "contract": "contracts/MySignalApp.sol:MySignalApp",
        "label": "s_providerBalance",
        "offset": 0,
        "slot": "20",
        "type": "t_mapping(t_address,t_uint256)"
      },
      {
        "astId": 1299,
        "contract": "contracts/MySignalApp.sol:MySignalApp",
        "label": "s_referrerBalance",
        "offset": 0,
        "slot": "21",
        "type": "t_mapping(t_address,t_uint256)"
      },
      {
        "astId": 1303,
        "contract": "contracts/MySignalApp.sol:MySignalApp",
        "label": "s_claimedAirdrop",
        "offset": 0,
        "slot": "22",
        "type": "t_mapping(t_address,t_bool)"
      },
      {
        "astId": 1307,
        "contract": "contracts/MySignalApp.sol:MySignalApp",
        "label": "s_addressToTokensDeposited",
        "offset": 0,
        "slot": "23",
        "type": "t_mapping(t_address,t_uint256)"
      }
    ],
    "types": {
      "t_address": {
        "encoding": "inplace",
        "label": "address",
        "numberOfBytes": "20"
      },
      "t_bool": {
        "encoding": "inplace",
        "label": "bool",
        "numberOfBytes": "1"
      },
      "t_mapping(t_address,t_bool)": {
        "encoding": "mapping",
        "key": "t_address",
        "label": "mapping(address => bool)",
        "numberOfBytes": "32",
        "value": "t_bool"
      },
      "t_mapping(t_address,t_mapping(t_address,t_uint256))": {
        "encoding": "mapping",
        "key": "t_address",
        "label": "mapping(address => mapping(address => uint256))",
        "numberOfBytes": "32",
        "value": "t_mapping(t_address,t_uint256)"
      },
      "t_mapping(t_address,t_uint256)": {
        "encoding": "mapping",
        "key": "t_address",
        "label": "mapping(address => uint256)",
        "numberOfBytes": "32",
        "value": "t_uint256"
      },
      "t_string_storage": {
        "encoding": "bytes",
        "label": "string",
        "numberOfBytes": "32"
      },
      "t_struct(presaleDetails)1274_storage": {
        "encoding": "inplace",
        "label": "struct MySignalApp.presaleDetails",
        "members": [
          {
            "astId": 1263,
            "contract": "contracts/MySignalApp.sol:MySignalApp",
            "label": "saleCount",
            "offset": 0,
            "slot": "0",
            "type": "t_uint256"
          },
          {
            "astId": 1265,
            "contract": "contracts/MySignalApp.sol:MySignalApp",
            "label": "amountRaised",
            "offset": 0,
            "slot": "1",
            "type": "t_uint256"
          },
          {
            "astId": 1267,
            "contract": "contracts/MySignalApp.sol:MySignalApp",
            "label": "amountWithdrawable",
            "offset": 0,
            "slot": "2",
            "type": "t_uint256"
          },
          {
            "astId": 1269,
            "contract": "contracts/MySignalApp.sol:MySignalApp",
            "label": "tokensLeft",
            "offset": 0,
            "slot": "3",
            "type": "t_uint256"
          },
          {
            "astId": 1271,
            "contract": "contracts/MySignalApp.sol:MySignalApp",
            "label": "tokensSold",
            "offset": 0,
            "slot": "4",
            "type": "t_uint256"
          },
          {
            "astId": 1273,
            "contract": "contracts/MySignalApp.sol:MySignalApp",
            "label": "tokensPerBnb",
            "offset": 0,
            "slot": "5",
            "type": "t_uint256"
          }
        ],
        "numberOfBytes": "192"
      },
      "t_uint256": {
        "encoding": "inplace",
        "label": "uint256",
        "numberOfBytes": "32"
      }
    }
  }
}